:020000040800F2
:10000000D87101206DFD0008C5FB0008C7FB000882
:10001000C9FB0008CBFB0008CDFB00080000000076
:10002000000000000000000000000000CFFB0008FE
:10003000D1FB000800000000D3FB0008D5FB00083E
:10004000A1FD0008A5FD0008A9FD0008ADFD000800
:10005000B1FD0008B5FD0008B9FD0008BDFD0008B0
:10006000C1FD0008C5FD0008C9FD0008CDFD000860
:10007000D1FD0008D5FD0008D9FD0008DDFD000810
:10008000E1FD0008E5FD0008E9FD0008EDFD0008C0
:10009000F1FD0008F5FD0008F9FD0008FDFD000870
:1000A00001FE000805FE000809FE00080DFE00081C
:1000B000E3FB000811FE000815FE000819FE000809
:1000C0001DFE000821FE000825FE000829FE00088C
:1000D0002DFE000831FE000835FE000839FE00083C
:1000E0003DFE000841FE000845FE000849FE0008EC
:1000F0004DFE000851FE000855FE000859FE00089C
:100100005DFE000861FE000865FE000869FE00084B
:100110006DFE000871FE000875FE000879FE0008FB
:100120007DFE000881FE000885FE000889FE0008AB
:100130008DFE000891FE000895FE000899FE00085B
:100140009DFE0008A1FE0008A5FE0008A9FE00080B
:10015000ADFE0008B1FE0008B5FE0008B9FE0008BB
:10016000BDFE0008C1FE0008C5FE0008C9FE00086B
:10017000CDFE0008D1FE0008D5FE000800000000FA
:10018000D9FE0008DDFE0008E1FE0008E5FE0008DB
:10019000E9FE0008EDFE0008F1FE0008F5FE00088B
:1001A000F9FE0008FDFE000801FF00082DE9FC47EC
:1001B0000646DFF8FC79706878627189142948DB9B
:1001C000DFF8F089D8F80010D8F8140001F0C8F969
:1001D000002840F0E48198F8140000F0F000E028D6
:1001E00000F0DD81786A00F0F6FC000B8100142934
:1001F000A4BF308988422CDB0022A1F11400BA622E
:1002000038837289DFF8B0998A4206DB78834942E5
:1002100009B2304601F05AFC3CE0306830B909F1CF
:100220002803B2220FF2DC3101F0C9F86FF013019C
:10023000304601F04BFC71893C8B79833046641A5F
:1002400009B2494209B201F041FC30684189A4B2C7
:10025000A142C0F2A4814268BA6221B2494209B205
:1002600001F034FC318970890C1B348130B109F103
:100270002803CF220FF29C3101F0A1F831683089B8
:100280000A89904206D009F12803D0220FF290315A
:1002900001F095F8786ADFF824A9008801F06AFF78
:1002A000796A0880488801F065FF796A488001F022
:1002B00078F8796A4860F862796A886801F060FFC6
:1002C000796A88603863786AC08901F053FF796A77
:1002D000C88100F07CFC00F03F00387010F0030093
:1002E000318918BF0120401838840024DAF8005002
:1002F00001E02C46ED68002D00F05881287D30B9D2
:1003000009F12803E22209F1680101F058F8287D7B
:100310000A2806D109F12803E32209F1900101F02E
:100320004EF8287D012806D109F12803E42209F1BD
:10033000BC0101F044F8786A298B0288914202BF1F
:10034000E98A40888142D4D16968D8F81000814296
:1003500002BF2968D8F814008142CAD1E968A942CD
:1003600006D109F12803EC2209F1E40101F027F894
:1003700034B1E868E060DAF80010E960CAF80050CB
:10038000E868A84206D109F12803F42209F588712A
:1003900001F015F8002078603189786AB9817861B8
:1003A000002179637970F983BE603878010703D53D
:1003B000707B40F0010070736FF00C04686F0028D0
:1003C0006AD0284602F098FBA04205D0686F00284A
:1003D0001CBF388C00285FD0688D002802D12846C9
:1003E00003F092FAD1E0E468002C00F0E380207D75
:1003F0000A2806D009F12803FE2209F59E7100F0B3
:10040000DEFF786A218B0288914202BF4388E08A2E
:100410009842E8D16168D8F81000814202BF216893
:10042000D8F814008142DED13978480722D4388CBC
:100430008D0712D5FD6A616AB5EB010C13D4218DCD
:10044000ACEB010100290EDC019200932918386BF6
:1004500008F1100308F11402C6E0C90703D5DFF85C
:10046000602713682362002804D000F05EFB20465A
:1004700003F07FFA93E0C88A5C88A04209D108683B
:10048000D8F81440A04218BF002918BF002800F077
:10049000AE800A46C96892E0BD63284600F072F952
:1004A000A04272D0787801070FD5D5F88C201AB108
:1004B00028696FF00D0190472946504602F0AEFCC6
:1004C0002946012003F0C6FD5FE0FA8B42B1EB6FD5
:1004D00023B1286929469847A04256D00020F883C6
:1004E000284600F0BBF800284FD1786B40B3D5F810
:1004F000740030B109F128034FF4D27250A100F01A
:100500005EFFA87E7A6BC10606D5104601F0E2FABE
:10051000284601F0D2FF38E0D5F880C0BCF1000FCA
:1005200004D0286900232946E04704E00023294637
:10053000002002F041FBA04227D008B1786B686729
:100540007878810618D5686F20B1417B41F0200191
:10055000417311E0288DB0F5066F1CBF401C288543
:10056000D5F880C0BCF1000F06D028690023002216
:100570002946E047A04208D00020B863284600F092
:100580006DF810B9284603F0F4F90020B8637863D9
:10059000B86848B101F09EFA0020B86004E0304627
:1005A000BDE8F64701F096BABDE8F387DFF8140618
:1005B000046819E7DFF810567B6A296800220029D1
:1005C0007FF459AF988901F0D5FD4007E7D4786AE8
:1005D0000188019108F110034088398C009008F1DE
:1005E0001402F86A4118386B03F01FFBD7E722B1F9
:1005F000C868D0602A68CA602960084600F04CF8D4
:10060000CDE70000702D3E6E65787420213D204EB0
:10061000554C4C00702D3E6C656E203D3D203000E9
:10062000702D3E746F745F6C656E203D3D20702DA3
:100630003E6E6578742D3E746F745F6C656E00005D
:100640007063622D3E726566757365645F64617484
:1006500061203D3D204E554C4C00000010B5044635
:10066000DFF84C054178C80614D5A17EC80606D42B
:10067000D4F88C201AB120696FF00E019047214602
:10068000DFF8380502F0CAFB2146012003F0E2FC46
:10069000012010BD002010BDFEB5DFF81455064640
:1006A000287841076CD4C106DFF808750FD5686A51
:1006B0000188019107F110034088298C009007F10F
:1006C0001402E86A4118286B03F0AFFAF7BD8007FF
:1006D00056D5707D02F0B2FA04000AD1B369002B3E
:1006E0004ED0306903B0BDE8F0404FF0FF3200213A
:1006F00018477869206003223969616004F15C075A
:10070000F08AE082696A088820832275E86A401CC2
:100710006062E062204602F0C7FB6065E0646064EE
:10072000A065E86A401E206530692061FE61307A6C
:1007300000F00C002072DFF8840400F0EFF9DFF81D
:10074000181C01200870204600F055FE686AC08918
:1007500038807880211D608E02F0ACFB608612210B
:10076000204603F03EF830B1204603B0BDE8F0402B
:10077000002101F046BE2046BDE8FE4003F0F9B876
:10078000F7BD00002DE9FE4FDFF82474DFF8288460
:1007900004463878410704F1440628D5207D022814
:1007A00005D1386BB168884240F0A5810CE0616AE0
:1007B000FA6A8A4213D138B908F1280340F2E722D5
:1007C0000FF2383100F0BDF9787840F00800787009
:1007D000A07E00F0FE00A0766FF00D008CE1511AB3
:1007E00000F18981208D091A0029DDDC8EE0800767
:1007F00004D5207D022818BF0328F7D1A07EC106AA
:1008000003D4DFF8BC0302682262002084F896005B
:1008100041F21C19204600F0EEFDFA6A388C97F878
:1008200000A07B6ADFF88CE3DFF890531018029089
:100830000AF0100194F814B0386BABF1020BBBF165
:10084000070F65D8DFE81BF008007C00D800E10046
:100850000D01D8001E0147010AF01205122D02BF3A
:1008600035686D1CA84254D1511C6162E162306050
:10087000521ED88930837083F26004202075211DB8
:10088000608E02F017FB42004A458CBF13464B4670
:1008900060868100994238BF800003D34A458CBFEF
:1008A00040004846B080F08B38B908F1280340F288
:1008B0001A320FF6C03100F044F9F08BB56A411ED0
:1008C000F18365B9756A3DB908F1280340F2223217
:1008D0000FF6B83100F035F92868706201E0296838
:1008E000B162284602F046F9B06A00280EBF4FF008
:1008F000FF30002084F842002086336C33B1206939
:1009000000222146984710F10D0F41D000F00DF95B
:10091000F1E00029FCD0198801915A8802990092CF
:100920000EF110030EF1140203F07FF994F8420067
:10093000062804DA00212186204603F0C9F9DAE00E
:1009400000294ED03168411A491E3ED4B168411A7F
:1009500000293ADC04202075706BB0B1806948B979
:1009600008F1280340F251320FF6343100F0E9F873
:10097000706B50B1706B83693BB1206900222146D6
:10098000984740B110F10D0F02D0204601F095FDBF
:100990006FF00C00B0E000F0C6F8F88B08B1401E14
:1009A000F883608E42004A458CBF13464B46810057
:1009B000994238BF800003D34A458CBF4000484667
:1009C000B080787881061CD495E01A8801920EF1E7
:1009D0001402598800910EF11003029903F025F9D1
:1009E00089E05FEA8A70FBD5616A491E8A4202D1BA
:1009F000204603F08AF97EE000F095F878788106C9
:100A000079D500F092F8072129E000F08CF87A7887
:100A10003878396B930600F0100017D590B1B268A2
:100A2000914204BF706A00280CD100F083F8286856
:100A3000A04239D000E00846002840D0C168A14259
:100A4000F9D13AE000F071F8082108E0002852D00E
:100A5000B268914204BF706A00284CD1062121750A
:100A600049E000F060F87878810644D500F062F83B
:100A70002868A04218D000E0084600B3C168A1422F
:100A8000FAD11AE000F04FF83878C10633D5386B48
:100A9000B168884204BF706A00282CD1204602F059
:100AA0009AF92868A04204D12868C168296006E044
:100AB000084620B1C168A142FAD1E168C1600020B6
:100AC000DFF89428E060012111700A2020753D486C
:100AD00000F024F80FE000F026F83878C1060AD5B7
:100AE000386BB168884204BF706A002803D17878F7
:100AF00040F0100078700020BDE8FE8F7463705FD6
:100B0000696E7075743A207063622D3E73746174FF
:100B10006520213D20434C4F534544000168E1606E
:100B2000046003F0F1BA204658E0A07E40F00200D5
:100B3000A0767047A07E40F00200A076204602F02A
:100B40004AB9404603F0B2BB70B505460C46296968
:100B500000F03DF8C00713D5204602F002F800244B
:100B600023E000F038F8C00706D5012001F002FBB1
:100B700029698A89104388812046246801F0FAFF98
:100B80009CB120690A492A89C96A436826898A185A
:100B9000D31A9B1BE5D54368D21A002A05DD591AE2
:100BA000298189B2686800F0D5FE2C6070BD000014
:100BB000506C0120386D01205CE4000830000020FA
:100BC00024000020340000202C00002001698889C6
:100BD00001F0D0BA6869808901F0CCBA2DE9F84FEC
:100BE0000646DFF88498307D042807DA09F12803E7
:100BF0004FF481620FF6C80100F0E1FBDFF86C589A
:100C00002878C10606F1440740F1438139693C8BDD
:100C1000D7F80C80E86AD5F824C02B6B0A19B8EB1A
:100C2000000E09D402D1B1EB030805D499421ED1BC
:100C3000BCF80E108C421AD2BCF80E10F86006F107
:100C4000440C8846BCF81A403983A04538BFA046FA
:100C500006F19404A7F81A803B61607821B930B995
:100C600001212070617002E008B10020607009F578
:100C7000B674D7F800C00FF66408A3EB0C00002888
:100C800006F1420128DC288C002801BF3869B7F83A
:100C900018E0704490421CD1B6F93000002818D4F6
:100CA0009C4516D14878421CD3B2984238BF4A704E
:100CB0004878042807DBB888718E09188AB29042F8
:100CC00000D2B980A4E00328FCD1304603F042F8FA
:100CD0009EE0002048709BE0401E72D4B868181A4D
:100CE00000286EDCB07E420704D500F0FB00B07631
:100CF000F888B88000220A70B6F93C00B6F93E20A8
:100D000002EBE002A6F84020002048703B60317DF5
:100D1000042935DBB888F9888842718E04D2091815
:100D20008AB290422CD20AE0494391FBF0F10918B3
:100D300006F1440089B28388994238BF1946B980C8
:100D40001EE0DAF80000B86200F012FBF98B814275
:100D500005D209F1280340F29E4200F02FFB00F07B
:100D600007FB00F009FBF88B50B1B86A40B9786A0C
:100D7000F8B909F1280340F2A742414600F01FFBF1
:100D8000B86AB0B100F00CFB8346B86AFFF71EFFEB
:100D9000D7F828A02A6BBAF8081010F0030018BF83
:100DA000012059444018801A0028CADDBAF1000F0A
:100DB00002D14FF0FF3000E0002030860020F076B6
:100DC00026E0304602F0A0FD22E0DAF8000078626A
:100DD00000B9388400F0CCFAF98B814205D209F1D0
:100DE000280340F2D54200F0E9FA00F0C1FA00F021
:100DF000C3FAF88B60B1B86A002804BF786A00288B
:100E000006D109F1280340F2DD42414600F0D7FA4D
:100E1000786AB8B100F0C4FA8346786AFFF7D6FE64
:100E2000D7F824A0BAF8082010F00301286B18BFE7
:100E30000121A0EB0B039A1A511A03D4B968401A86
:100E40000028C2DDB98BE88B4118B983706B00B301
:100E5000B26B296B521A1CD5DFF814261368B6F949
:100E60003C10181A00B2A0EBE1004118B18704B29F
:100E7000002CB6F93E2048BF40428018A0EBA200EB
:100E8000F0870904C91401FA80F0A6F84000002197
:100E90007163288CE96A002800F04A82327D072AB3
:100EA00080F24682726AA2EB0108B8F101035DD4B8
:100EB000A8EB0000401C59DCAC683CB909F12803E0
:100EC00040F23C520FF2346100F079FA47F6FF70BD
:100ED000804507DB09F1280340F23D520FF22C61F7
:100EE00000F06DFAA8680FF2446A4189414525DA9D
:100EF0000089404507DA09F1280340F23F520FF21A
:100F00001C6100F05CFAA8680089A0EB080005E00D
:100F1000A8EB010800212081618124686189414595
:100F2000F6DBC8F100080FFA88F1204600F0CEFD8C
:100F300090B109F1280340F24C520AE0C8F10008D0
:100F40000FFA88F100F0C2FD30B109F1280340F238
:100F50005152514600F033FA716AAA89E86A521A6E
:100F60008218AA81E9626869416005E0891A03D59F
:100F7000B07E40F00200B076716AEA6A531A00F15E
:100F8000D281308D1B1A5B1C00F3CD81914209F593
:100F9000CA7A40F01381FFF71DFE00F005FA18BF72
:100FA00001204018288480B2328D82422BD2FFF774
:100FB00011FEC00709D56969FFF709FE00F03E0080
:100FC00001F0D8F86A6900F0CCF9308DA881696920
:100FD000FFF7FDFD00F0DBF9FFF7FCFD00F0E4F9A1
:100FE00018BF012040182884EA6A716A12FA80F05A
:100FF000328D8A18904206D009F1280340F27F52C0
:10100000514600F0DCF9F86A002857D0FFF7E2FDFE
:10101000C00707D5F86A002850D00168F96201F0CE
:10102000A9FDF7E7FC6A1BE0FFF7D5FDC00713D564
:101030006969FFF7CCFD80070ED4012001F09AF812
:1010400069698A891043888101F094F800F0ACF94D
:1010500018BF0120401828842046246801F08AFD2A
:101060005CB32069E96A2A8C4368B4F808808A185E
:10107000D31AB3EB0803D7D54368D21A002A1CDD74
:10108000591AA981FFF7A6FD00F081F9FFF7A2FD2B
:1010900000F08AF918BF012040182884226951689D
:1010A000EA6A12FA80F0884207D009F1280340F278
:1010B000AF5209F5E67100F082F9FC62288CE96A0A
:1010C00009187162328D824207D209F1280340F279
:1010D000B9520FF26C4100F072F9318D288C091A67
:1010E0003185304601F08DFAA968088910B169632D
:1010F0000020A860FFF76EFDC00703D5697841F0B6
:1011000020016970FC6A002C00F01F812169486889
:10111000716A884240F01981E8622069FFF75BFD3F
:1011200010F003002289716A18BF0120801841184D
:1011300071622169FFF74BFD10F003002289318DA8
:1011400018BF01208018814207D209F1280340F21C
:10115000DE5209F5027100F032F92069FFF73BFD1C
:1011600010F00300318D228918BF0120891A081A56
:101170003085304601F045FA6168088938B1686BFE
:1011800000280CBF696300F01BFD0020606020692F
:10119000FFF721FDC00708D5697841F0200169708B
:1011A000307D042804BF072131752068F86220468D
:1011B00001F0E0FCA6E740F00100C3E0304602F099
:1011C000A3FBD7F82C80B8F1000F03D100F0C6F8CC
:1011D000F862B8E00024D8F81020E96A506881422B
:1011E00008D0B4B9081A1DD500F0B8F80028F0D01E
:1011F000F8620CE0B8F80800A9898842E9D200F04A
:10120000ADF80028E5D0002C14BF2060F8624146FC
:1012100027E023695868081A401E03D45068081A4A
:10122000401C0BDDD8F8000018B95368C91A002912
:101230001ADC44465FEA0008CDD184E000F08EF865
:101240000600FAD02069238900F0B2F806DD426872
:101250006068891A218189B200F07CFB26604146D2
:101260003046BDE8F44F6FE4908900F083FFC0077B
:1012700069D400F073F80028C8F8000063D0D8F8EB
:101280001000B8F8083000F093F808DD4268D8F88C
:101290000400891AA8F8081089B200F05BFB288CBA
:1012A000EA6A716A1218308D521A121A002A4ADD3F
:1012B00000F088F8C0070AD500F084F800F03E007E
:1012C00000F058FFD8F800100A6900F04AF8726A76
:1012D000308DE96A8218D8F80000511A018189B26C
:1012E000406800F037FBD8F80000FFF76FFCD8F833
:1012F00000100A8910F0030018BF0120801828840C
:10130000E96A726A11FA80F0318D511888421AD058
:1013100009F128035146484601B0BDE8F04F40F2BC
:101320007B6202F0C3BF3046BDE8F24F02F0ECBA78
:10133000706A091A03D4308D091A491C03DDB07E86
:1013400040F00200B076BDE8F18FB07EC1077FF5B6
:1013500032AF00F0FE00F3E720000020281D01F06E
:1013600019BC93894CF2FF010B40184390817047E0
:10137000DAF8040000F00ABCF98B081AF883BAF80E
:101380000810E88B0818E883504601F0F3BB80078B
:1013900002D5A989481EA881A989A86800F0DABAEF
:1013A0000169486800F0ECBE10F00300A98970479D
:1013B0004268E96AD218521A002A70472146484604
:1013C00002F074BFD8F800100869808900F0D2BE1E
:1013D00010B526498A8B886A531C10B14C8BA242E7
:1013E00004D2486A8B831044007D10BD121BD2B218
:1013F0008B83805C10BDF8B51C4D2C8B064664B306
:101400000020A88317E0FFF7E3FF042825D1A98B6C
:10141000891C8C4221DBFFF7DBFF0746FFF7D8FF73
:1014200040EA072040F21922904201DA010001D17E
:101430004FF406707086A88BA0420ED2FFF7C8FF4B
:1014400058B10228DFD0F6D3FFF7C2FF0228A1BFB0
:10145000A98B801E4118A983EDDAF1BD03484178BC
:1014600041F01001417070475CE40008506C0120AD
:10147000240000207063622D3E736E645F71756599
:1014800075656C656E203E20300000006E6F207325
:1014900065676D656E7420746F2066726565000007
:1014A0007063622D3E6C697374656E65722D3E616A
:1014B000636365707420213D204E554C4C00000044
:1014C0007463705F726563656976653A2077726FE1
:1014D0006E67207374617465000000007463705F50
:1014E000726563656976653A2076616C696420711E
:1014F00075657565206C656E67746800696E7365E7
:10150000672E7020213D204E554C4C00696E736152
:101510006E65206F66667365742100007062756683
:1015200020746F6F2073686F72742100706275662B
:101530005F686561646572206661696C656400005E
:101540007463705F726563656976653A2074637071
:101550006C656E203E207263765F776E640A0000D1
:10156000C24318BF002810D091F8372093070ED53A
:101570004A6890420BD0896801EA00030A4093420E
:1015800002BFC9430840884201D1012070470020B2
:1015900070470000F8B50C4684B001786A4606E052
:1015A00003A98A424BD242F8045B10F8011FA1F153
:1015B00030030A2B43D200250A2330290ED110F81C
:1015C000011F782914BF5829102305D0082305E0EE
:1015D00003FB0511A1F1300510F8011FA1F1300640
:1015E0000A2EF5D3102B42D1A1F16106062E24BF9D
:1015F000A1F14107062F3AD21A2E34BF61264126A7
:101600000A31891B41EA0515E6E7B5F5803F3EBF83
:101610000098B0F5807FB6F5807F10D241EA06478A
:1016200013E0B5F5807F3CBF0098B0F5807F06D20F
:10163000B6F5807F3CBF0298B0F5807F01D30020D3
:1016400013E041EA064747EA00273D4307E01D480B
:101650001DA100F1280340F2031202F027FE1CB185
:10166000284600F08DFD2060012005B0F0BD2E2938
:1016700096D0002918BF202908D00C2918BF0A29A4
:1016800004D00D291CBF09290B29D8D10098019E2F
:1016900001066846131A9B105B1C042BD7D8DFE8A1
:1016A00003F0070608050400D1E7BAE7ADE7D6E77F
:1016B000C5E7B5F1807F3CBF0098B0F5807FBED212
:1016C0000D43CCE7BCF80008756E68616E646C650C
:1016D0006400000010B5DFF81418DFF814280020AB
:1016E0000870146800E0E46834B1206F0028FAD074
:1016F00001F037FA0021216710BD00002DE9F84FF5
:1017000004281446DFF8ECB71ED8DFE800F0031712
:10171000191B1B003625032C0F4600F2D880DFE88A
:1017200004F0A0CACA02082002F06AFC0600DFF832
:10173000BC8710D1012088F80000C1E02225EAE72B
:101740000E25E8E70025E6E70BF128034FF48B723E
:101750000FF2E071C1E00320307300213160EC1C16
:10176000711901F11000C01CA4088008A4008000B9
:10177000C4F514747060A742378138BF3D4605D365
:10178000ED1C4FF6FC700540C5F5147575810BF125
:101790009800009006F518797168708908448145B1
:1017A00006D200990BF128034FF4987200F09EF8CE
:1017B0003CB90BF128034FF499720BF1CC0100F006
:1017C00095F870890FF2887A0121F18135463F1A28
:1017D00039E003200021207361734FF6FF7221600E
:1017E00097422C6006DB0BF128034FF4A67251469A
:1017F00000F07CF8B8B2B0F5147F27812CBF4FF40D
:1018000014703846608104F110006060217911F095
:10181000030F07D00BF128034FF4A9720BF5807169
:1018200000F064F8706871890144894506D2009916
:101830000BF1280340F2551200F058F8618901209D
:10184000E0817F1A2546012F2EDB082002F0D8FB0D
:101850000400BED1012088F80000304600F03AF9BB
:101860002EE005F11300C91C80088908800000EBF8
:101870008100B0EB810F23D302F04AFE06001FD097
:1018800070191030C01C8008800000F029F83173F6
:10189000307910F0030F07D00BF1280340F27712D4
:1018A0000BF5987100F022F80120F081002171738E
:1018B0003046BDE8F28F072002F0A2FB060001D1FE
:1018C0000020F6E7002000F00BF83473ECE70BF192
:1018D00028034FF4C6720FF28C6100F007F8EFE7AF
:1018E000706037817781002131607047584602F07F
:1018F000DDBC000038B50446042C184610D8DFE8DB
:1019000004F003090B0D0D003824059B6518AB424C
:1019100012D20FE02424F8E71024F6E70024F4E7BD
:10192000DFF8D00500F1280340F2C51200F5AE71D2
:1019300002F0BCFC002032BD049B0025056003B111
:1019400023444360027302230181418101224373D6
:10195000C28132BD2DE9F84304000E46DFF89455EC
:1019600007D105F1280340F2F3120FF2146100F0E1
:101970005AF8207B032818BF01280BD0002818BF75
:10198000022807D005F1280340F2F7120FF2086190
:1019900000F049F82789BE4243D2F71B0FF22868AE
:1019A0000FF2106918E0361A4FF6FF708742B6B290
:1019B00006DB05F1280340F20B22494600F033F81C
:1019C000208938182081246834B905F1280340F2B1
:1019D0000F22414600F027F86089B042E3DB207B0C
:1019E000B0B96089864213D0617B880710D46168E2
:1019F000091B16FA81F1204602F018FD040007D1F8
:101A000005F1280340F21D220FF2D45100F00BF82B
:101A1000668160892081206808B100F05BF80020B1
:101A20002060BDE8F183284602F040BCF8B5DFF83D
:101A3000C44448B904F1280340F23F220FF2BC51DC
:101A4000204602F033FC34E00B0032D04E42002935
:101A50000BD537464389BDB2AB4207D204F1280308
:101A600040F247220FF2A0512BE08FB2037B456872
:101A7000002B18BF032B07D100F11003AA199A42BB
:101A8000426010D245601FE0022B18BF012B12D11B
:101A9000002904D54289BFB2BA4202D214E013DD54
:101AA00092B1AA194260428903898A18C9184281F1
:101AB00001810020F2BD04F1280340F277220FF2E9
:101AC0006851204602F0F2FB0120F2BD0022ADE792
:101AD0000122ABE72DE9F0410400DFF8186409D1D9
:101AE00006F1280340F2D2220FF2105100F09FF8C5
:101AF000002049E0207B002818BF01280BD00228D5
:101B000018BF032807D006F1280340F2DE220FF2A7
:101B1000285100F08CF800270FF23458E08930B9D2
:101B200006F1280340F2EB22414600F080F8E089FC
:101B3000401EE08180B230BB617B2568207B8A0734
:101B40000DD5206938B906F1280340F2F92206F5CF
:101B5000C07100F06CF821692046884710E0032826
:101B600002D12146082005E0012818BF022804D12F
:101B70002146072002F06EFA02E0204602F016FC31
:101B80007F1C2C00CAD1F8B2BDE8F08101460020CC
:101B900001E00968401C0029FBD180B2704770B198
:101BA000C189491CC18189B249B9DFF848030FF2E4
:101BB000B84100F1280340F2393202F077BB704798
:101BC00070B504000D4618BF002DDFF828630FD153
:101BD00006F1280306F5D2713046BDE8704040F2A8
:101BE0004D3202F063BB21892A89511821810446B4
:101BF00020680028F7D120896189884207D006F142
:101C0000280340F2553206F5EE7100F010F8206816
:101C100038B106F1280340F256320FF2604100F06D
:101C200006F82189288941182181256070BD304638
:101C300002F03CBB10B50C46FFF7C2FF2046BDE8E2
:101C40001040ACE72DE9F0470546002600270C467A
:101C5000002D18BF002C6FF00F08DFF8989203D00A
:101C600028892189884262D209F1280340F2BD32D5
:101C700009F50C7147E060686B68C1191FFA8AF2B8
:101C8000981902F02BFD56446889B6B25744B04209
:101C9000BFB207DA09F1280340F2CD320FF2EC317E
:101CA00000F050F86089B84207DA09F1280340F2E1
:101CB000CE320FF2F03100F045F860898742688932
:101CC000A4BF00272468864202BF00262D68002D8D
:101CD00011D02CB160892189884201D12068B0B926
:101CE0002DB168892989884201D12868D0B9F4B911
:101CF0000020BDE8F087002CFAD009F128034FF44A
:101D000076720FF2BC3100F01DF84046F1E709F1A0
:101D1000280340F2DE3209F5187100F013F86FF075
:101D20000500E6E709F1280340F2E332F3E76389AF
:101D30006889811BDA1B9142ACBFA3EB070AA0EBB9
:101D4000060A98E7484602F0B1BA2DE9F84304467E
:101D5000894617460026674834B900F1280340F247
:101D6000FE320FF26C3108E0B9F1000F09D100F139
:101D7000280340F2FF3200F5237102F097FA0020A9
:101D80000BE0B0461FE0658998B240B1A84206D387
:101D900024685B1B002CF6D1B0B2BDE8F283ED1ACB
:101DA000ADB2B8B29BB2A8426068B8BFBDB2C118AC
:101DB0001FFA88F02A46484402F090FC2468AE19C5
:101DC000A8447F1B0023B8B20028E5D0E2E730B179
:101DD00043899942A2BFC91A89B20068F7DA02B1F1
:101DE00011807047F3E72DE9F84F91464D460026E4
:101DF0006FF00F04DFF8FCA030B90AF1280340F2BD
:101E000084420FF2EC2106E049B90AF1280340F2BE
:101E100085420FF2F42100F03CF8204637E00289B9
:101E20004A450AD20AF1280340F286420FF2F42111
:101E300000F02FF84FF0FF3029E00FF2083B884602
:101E4000044616E034B90AF1280340F28E4259469E
:101E500000F01FF86089AFB2B842B8BF07466068AB
:101E60003A4608EB060102F039FCBE192468ED1B66
:101E7000B6B2A8B20028E5D14E4507D00AF1280332
:101E800040F299420FF2D42100F003F80020BDE89F
:101E9000F28F504602F00ABAF8B50D4616466A4669
:101EA0001946FFF79FFF04001DD0BDF800302189BF
:101EB000F218914217DB6789D4F804C0F81AB042CF
:101EC000BABFFF1ABFB237463A4629460CEB0300A9
:101ED00002F004FCF61BB0B238B12068B2B2E919C6
:101EE000FFF781FFF2BD4FF0FF30F2BDD56D01204D
:101EF00030000020C4D8000880B56A46FFF767FFAD
:101F000038B1BDF800104289914202D24068405C6D
:101F100002BD4FF0FF3002BD1CB514466A46FFF704
:101F200061FF30B1BDF80010428991423CBF40686A
:101F3000445413BD706275665F616C6C6F633A20C8
:101F40006261642070627566206C61796572000060
:101F500072656D5F6C656E203C206D61785F7531D8
:101F6000365F7400706275665F616C6C6F633A20F7
:101F70006572726F6E656F7573207479706500009D
:101F8000706275665F7265616C6C6F633A20702079
:101F9000213D204E554C4C00706275665F72656144
:101FA0006C6C6F633A2073616E6520702D3E74799E
:101FB0007065000067726F77203C206D61785F75F7
:101FC00031365F7400000000706275665F72656193
:101FD0006C6C6F633A207120213D204E554C4C00B3
:101FE0006D656D5F7472696D2072657475726E6572
:101FF000642071203D3D204E554C4C007020213D09
:10200000204E554C4C000000696E6372656D656E24
:10201000745F6D61676E6974756465203C3D207006
:102020002D3E6C656E000000626164207062756612
:102030002074797065000000706275665F66726575
:10204000653A2073616E6520747970650000000048
:10205000706275665F667265653A20702D3E7265C6
:1020600066203E2030000000706275662072656652
:10207000206F766572666C6F77000000702D3E6E83
:10208000657874203D3D204E554C4C006F6666735C
:1020900065745F746F203C3D20705F746F2D3E6CE3
:1020A000656E00006F66667365745F66726F6D20A3
:1020B0003C3D20705F66726F6D2D3E6C656E00005A
:1020C000705F746F20213D204E554C4C0000000085
:1020D000706275665F636F70795F70617274696159
:1020E0006C3A20696E76616C6964206275660000E6
:1020F000706275665F74616B653A20696E76616CBB
:102100006964206275660000706275665F74616B59
:10211000653A20696E76616C6964206461746170EF
:1021200074720000706275665F74616B653A20625C
:102130007566206E6F74206C6172676520656E6FC6
:1021400075676800706275665F74616B653A2069D7
:102150006E76616C696420706275660064696420E3
:102160006E6F7420636F707920616C6C2064617491
:10217000610000000146000A40EA012080B2704779
:102180000146080200F47F000A0A40EA016002F4F6
:102190007F42104340EA1160704770B510F8014B60
:1021A00011F8013B9C4209D044F02005A5F16106DD
:1021B0001A2E0BD243F020039D4207D113465A1E1C
:1021C000002B18BF002CE9D1002070BD012070BD8C
:1021D000704780B500F05BFCDFF8540A0178491CB9
:1021E0000170C80702D5BDE80140B2E201BD0000A0
:1021F0007CB504460029227DDFF8385ADFF8386ABA
:102200004CD0042A18BF072A48D1606F002804BFA9
:10221000208DB0F5066F41D0A07EC10600F1078089
:1022200006F1280340F20F1261A100F04DFA208B55
:102230000190231DE18A00912246616AE06C01F061
:10224000F4FC204600F0C7FD2869A04203D1C06815
:10225000286106E0084620B1C168A142FAD1E168D0
:10226000C1600020E06001212970207D042808D190
:102270000A2121756869E0606C6101F045FF00206A
:1022800076BDDFF89C0A0168A14202D1FFF7E6F8AB
:10229000F5E72146012001F0DDFEF0E71AB1022A40
:1022A0003FD013D346E0E08A0028F2D0A868A042CD
:1022B00003D1C068A86006E0084620B1C168A14209
:1022C000FAD1E168C1600020E060E2E77CB906F184
:1022D0002803C02243A100F0F7F90020017D012965
:1022E00005D006F12803C12238A100F0EDF9012143
:1022F0000FF22842002652F82100006804E0836FA4
:10230000A34208BF8667C0680028F8D1491C042989
:10231000F1D3214605F10C0000F080FD214602209A
:10232000B9E7214605F1100000F078FD0120287082
:102330002146B0E72046BDE8764000BF38B505002D
:1023400040F00980DFF8F00826A100F1280340F2F0
:102350004D1201F0ABFF287D032804D004280AD0D9
:10236000072813D019E0284600F096FE040007D194
:102370000520287505E0284600F08EFE0400F7D001
:102380006CB9284601F0F5FA204632BD284600F027
:1023900083FE0400F4D10920EBE7002032BD14F1E4
:1023A000010FF1D1A87E40F00800A876F5E7000003
:1023B0007063622D3E666C61677320262054465F11
:1023C0005258434C4F534544000000007063622D47
:1023D0003E7374617465203D3D204C495354454E15
:1023E0000000000070636220213D204E554C4C00DF
:1023F000017D012903D0817E41F010018176012108
:10240000F6E62DE9FE4F04468B46207D012807D1D4
:1024100000F08CF94FF4F07200F1680101F046FF12
:10242000217DDFF8187B0A290BD1214607F1140022
:1024300000F0F4FC214603B0BDE8F04F012001F0AC
:1024400009BEE06C02900025666AD4F88CA0D4F82E
:102450001080E08AA94621B960B100F06CF9E5600E
:1024600008E08146214607F1100000F0D7FC01206A
:102470005D463870E06E08B100F073FBA06E08B1E5
:1024800000F06FFB206F08B100F06BFB4DB1208BAB
:102490000190CDF80090231D02982246314601F0AC
:1024A000C4FB214600F0AAF85FEA0A0003D06FF0EF
:1024B0000C014046D047BDE8F78F0121A1E700009D
:1024C000F8B50C00054608BFDFF8744A002D18BFA8
:1024D000002C13466FF0050609D0287D48B100F0A6
:1024E00025F94FF4117200F19C0101F0DFFE304636
:1024F000F2BD180006D100F0EBF8030018D16FF020
:102500000100F2BD5FF0000684A757F826000268BC
:102510005AB1D08A984206D1BAB11168A9B12068DF
:1025200098B1814211D0D268F2E7761C042EECDB20
:10253000206800B12860DFF8040AEB828168E96056
:10254000856001F0E1FD0020F2BD6FF00700F2BDF3
:1025500080B50846FFF7B1FF6FF00C0002BD002206
:10256000F8B506461446307D002550B100F0DEF87F
:102570004FF42D7200F1C40101F098FE6FF00E00CF
:1025800036E0022001F03CFD050008BF4FF0FF30AF
:102590002ED03069DFF89C7628610120F18AE9822B
:1025A0002875717D6975307A2872B17AA972707A4E
:1025B000687231682960F08A70B1B868B04203D19E
:1025C000C068B86006E0084620B1C168B142FAD1DF
:1025D000F168C1600020F060314600F00FF8DFF8CC
:1025E0006409A861F968E960FD6001F08DFD0020D3
:1025F00004B120702846F2BD2946ED68012001F0A3
:1026000029BD70B50446218D656A628E681840F256
:102610003146B242E36AA8BF4FF48662C01A821AFA
:1026200001D4618570BDE81A0028C8BF00250DDC03
:102630005D1BB5F5803F09D3DFF80C090FF62011BB
:1026400000F128034FF4427201F030FE658500204E
:1026500070BD70B504460D46207DDFF8EC6801289A
:1026600007D106F128034FF4487206F1E80100F0A3
:102670002BF8208D40F661022D18A9B291422585D4
:1026800006DAADB285B9207D072818BF092803D125
:102690004FF40660208507E006F1280340F22D3252
:1026A00006F5887100F010F82046FFF7AAFFB0F594
:1026B000067F08DBA07E40F00200A0762046BDE841
:1026C000704001F056B970BD304601F0EFBD00001A
:1026D00070B5002211A3DFF874482188481C4FF61A
:1026E000FF75A94208BF4FF4404020800025208894
:1026F000E9B253F82110096800E0C96849B1CE8AEF
:102700008642FAD1521C90B2B0F5804FE5DB002032
:1027100070BD6D1CE9B20429EADB70BD2C000020FD
:10272000280000203000002034000020DFF81808C6
:1027300000F128037047B868A04203D1C068B860B0
:102740007047084620B1C168A142FAD1E168C16072
:1027500070472DE9FE4FDFF8DC64DFF8DCA4706819
:10276000401C70607078401C707036E1ED68002D80
:1027700000F08581287D38B90AF128034FF47C7276
:102780000AF5B27100F080F9287D012807D10AF11D
:10279000280340F2F1320AF5C87100F075F9287D7E
:1027A0000A2807D10AF1280340F2F2320AF5DE7155
:1027B00000F06AF97078697F8142D7D0297D4FF0A7
:1027C000000B02296877D84605F1400905F1940706
:1027D00006D199F802000628A8BF4FF0010B68DA6D
:1027E00099F802200C2AA8BF4FF0010B54DA787830
:1027F000C0B10FF614010844397810F8010C814279
:10280000BCBF491C39703978814245DB284601F04C
:10281000EEFA002840D13870787806283CD8401C61
:10282000787039E0B5F9300003005CBF401C2886A1
:10283000D9F82C0080B3B5F93000B9F900309842CE
:102840002ADB02290ED0B5F93C00B5F93E100C2A5E
:1028500001EBE00128BF0C220FF29C7082569140E0
:10286000A9F8001005F1400005F14001A5F83080FD
:1028700000898A8B698E904288BF104649004008C3
:102880008BB2984238BF0846A9F80A00688EA9F8AA
:102890000800284601F01CFA287D062809D1A87EE8
:1028A000C10606D57068296A401A292828BF0BF18D
:1028B000010B287A010729D5287D042818BF07288D
:1028C00024D17168286ADFF88826081AD9F85010D0
:1028D00052184FF4FA73B2FBF3F3834204D20BF1B4
:1028E000010B4FF0010811E0BA78DFF8683603FBFE
:1028F00002114FF4FA72B1FBF2F1814206D228467E
:1029000001F04FFA10B9B878401CB870D9F830000F
:1029100078B171682A6AB9F900304FF0060C891A4B
:1029200013FB0CFC614504D300F01BF90020C9F82F
:1029300030000BF10101287D032804D170682A6A58
:10294000801A292805E0092805D170682A6A801AAA
:10295000F12828BF8B465FFA8BF0002840D0D9F8C9
:102960004C70284600F037FA002C30690CD08542B4
:1029700007D10AF1280340F289420AF5F67100F006
:1029800083F8E868E0600BE0A84207D00AF128036A
:1029900040F28D420AF5067100F076F8E868306181
:1029A000B8F1000F0AD0288B01902B1DE98A009105
:1029B0002A46696AD9F80C0001F037F9D5F8108079
:1029C000FFF71AFE0020002F307008D06FF00C01C6
:1029D0004046B8473078002801D035690024C6E663
:1029E0002C46E07E217FED68401CE076C0B2884234
:1029F000F5D30020E0763070D4F888203AB1206911
:102A00002146904731780029E7D1002801D100F014
:102A100070F8ACE6A84207D00AF1280340F2CF4292
:102A20000AF5277100F030F8E8687061FFF7E4FDFF
:102A300045B3287D0A2807D00AF1280340F2BD4299
:102A40000AF5117100F020F87068296A401AF1281F
:102A500012D3284600F0BFF97069002CDAD0854205
:102A600007D10AF1280340F2CB420AF51D7100F0AC
:102A70000BF8E868E060D9E72C46ED68D8E775699F
:102A80000024D5E7BDE8F78F504601F00FBC70B5C4
:102A9000DFF8A8546878401C68702C691EE06077E5
:102AA000A07EC10705D500F021F8A07E00F0FC0053
:102AB000A076A07E010705D500F0F700A07620469D
:102AC000FFF73CFCE668606F38B1002129702046B2
:102AD00000F012F828780028DFD134462CB168784D
:102AE000617F8142DBD1E468F8E770BD40F002000D
:102AF000A076204600F03DBF2DE9F04105460020BC
:102B00006F6FD5F880407E7B6867002C03463A469D
:102B1000294602D02869A04701E000F04DF80100E5
:102B20006FF00C0812D1B00618D5288DB0F5066FDD
:102B30001CBF401C2885D5F880407CB12869002343
:102B400000222946A047404508D101E0404501D177
:102B5000404604E06F676FF0040000E00020BDE82D
:102B6000F08110B5002803E0046800F003F82000AD
:102B7000FAD110BD10B5040009D0606808B1FEF7A5
:102B8000A9FF2146BDE81040032001F063BA10BD43
:102B90004175704738B50546032001F031FA04004D
:102BA00001D1002032BD1422294601F097FD606852
:102BB000FEF7F5FF204632BD10B51400084607D0D9
:102BC0002189FFF746FD2046FEF784FF002010BD57
:102BD000002BFBD1BDE81040FFF70ABCB0B50828B8
:102BE00018BF0928044608D013480FF2903100F1AD
:102BF000280340F2DC5201F059FBDFF8403318693A
:102C00005F680021002209E0057DA54205D1056A23
:102C10007D1B8D4224BF29460246C0680028F3D19F
:102C20002AB1BDE8B04000211046FFF7EABBB0BDB5
:102C3000D66D01202000002090D20008F8B506468D
:102C400000F070F80400BD4D42D168696C68002244
:102C5000002106E0036AE31A934224BF1A460146A4
:102C6000C0680028F6D111B10846FFF726FC00F035
:102C700059F804002CD10920FFF7B0FF00F052F8FA
:102C8000040025D10820FFF7A9FF00F04BF804004D
:102C90001ED1802EACBF7F2232462869002300213E
:102CA0000DE0447DA24221BFD5F804E0076AAEEBF7
:102CB00007079F4202D33B4601462246C0680028D0
:102CC000EFD111B10846FFF7F8FB00F02BF80446EE
:102CD00024B39821204601F00DFD04F148006675EB
:102CE0004FF4866101834FF40662628522854FF4BA
:102CF0000673FF22A27263860622A4F84020E287B0
:102D000001234FF0FF32228603806A6822626B78CB
:102D1000914A637741808264904981632046F2BD85
:102D2000886C0120012001F06BB9FFE7402085E7A6
:102D300000B10161704738B504000D460CD0207D0C
:102D4000012807D1FFF7F2FC40F2BB6200F53171B8
:102D500001F0ACFAC4F8805031BD38B504000D461E
:102D60000BD0207D012807D1FFF7E0FC40F2CC62B8
:102D700000F53B7101F09AFAE56731BD38B50C46B4
:102D800068B100F114052878012807D1FFF7CEFCBF
:102D90004FF4DC6200F5457101F088FAAC6731BD93
:102DA00018B1027D012A08BF816170470000000050
:102DB00070B504460D46207D0128164607D16248AD
:102DC00072A100F1280340F2037201F06FFAC4F817
:102DD0008850267770BD38B50546287D00281CBF71
:102DE0000A28012819D005F16404206918B1FEF7FA
:102DF00071FE00202061E068FFF7B3FE0020E06074
:102E00004FF0FF3129866068FFF7ABFEA068FFF73F
:102E1000A8FE00206060A060208031BD38B5024669
:102E20000C461068A04203D1C068106006E0084656
:102E300020B1C168A142FAD1E168C1600022E2601C
:102E40002046FFF7C8FF207D0A2809D0012827D097
:102E5000A07EC10704D5FFF749FE207D01281FD0C1
:102E6000A06EDFF8E45038B105F1280340F2537248
:102E70004EA1284601F01AFAE06E38B105F1280398
:102E800040F254724FA1284601F010FA206F38B179
:102E900005F1280340F2567251A1284601F006FAC6
:102EA00000202075E08231BD244A906951680818DD
:102EB0009061704710B50446084601F05BFC00289D
:102EC0001EBFC08D01B2002904D0283880B28442D0
:102ED00088BF0446204610BD38B50446084600E0C9
:102EE000284638B101682268C568914208BFFFF7DB
:102EF000E4FAF5E731BD70B504001CBF2068002876
:102F00000D4619D00D4E31692046FFF7E5FFB16837
:102F10002046FFF7E1FF002D1CBF286800280BD0DA
:102F2000F068002807E002682368C1689A4204BF7D
:102F30002E6806600800F6D170BD00002000002059
:102F400090FD00085125000890D20008CC01002017
:102F5000B84C0A00F824010000DD6D00B92B000810
:102F60006E65775F7263765F616E6E5F776E642009
:102F70003C3D20307866666666000000696E7661CA
:102F80006C6964207374617465000000696E766119
:102F90006C696420736F636B65742073746174650E
:102FA00020666F7220706F6C6C000000756E736528
:102FB0006E74207365676D656E7473206C65616BEC
:102FC000696E6700756E61636B6564207365676D1C
:102FD000656E7473206C65616B696E67000000003C
:102FE0006F6F736571207365676D656E7473206CA8
:102FF00065616B696E67000001020304050607073F
:10300000070707070700000003060C183060780068
:103010002DE9F0410E4605461146891914319846AE
:10302000002289B20120FEF769FB040031D06089DB
:1030300006F11401884208DADFF8880C00F1580321
:10304000732200F1280101F031F96768E88AFFF77F
:1030500091F838803606288BFFF78CF87880C7F80F
:103060000480B60E686AFFF78BF8761DB8603603E9
:1030700046F01006B0B2FFF77DF8B881688DFFF713
:1030800079F8F881002038827882698D686A411861
:10309000E9622046BDE8F08138B50546AC6EC4B1A2
:1030A00000E0044620680028FBD121698889FFF7E9
:1030B00061F810F0070F0CD10120FFF75BF82169D0
:1030C0008A8910438881A87E40F02000A8760020DD
:1030D00032BD2846BDE83440012182E32DE9F047A6
:1030E000089D8146E8074CBF042600260F469246FD
:1030F0009846032000F084FF040003D13846FEF711
:10310000E9FC1CE025730020206067603989B1422A
:1031100080F20880DFF8AC0B1DA100F15803BA2241
:1031200001F0C4F83889801B002120816181384674
:103130001421FEF7CBFC20B12046FFF71BFD002039
:1031400023E0606841682161B9F81600FFF712F8C2
:1031500021690880B9F81800FFF70CF82169488048
:103160004046FFF70DF821694860701006EB907635
:10317000B610761D4AEA063188B2FEF7FBFF2169D8
:1031800088810020216948822046BDE8F087000040
:10319000702D3E746F745F6C656E203E3D206F70C5
:1031A000746C656E00000000F8B50D461E46914235
:1031B0002B461AD2079989070BD4069CA17E4F068D
:1031C00013D4089929B1A16E002904BFE16E00292A
:1031D0000BD003F21B239B08B2EB830F31BF1346C6
:1031E00005F21B234FF6FC74234000221946FEF71C
:1031F00085FA040001D10020F2BD206848B1DFF853
:10320000C40A0FF6AC4100F158034FF4887201F084
:103210004DF86089401B3080258165812046F2BDD4
:103220002DE9F84F8EB01C46064600230693059301
:103230000D930B930A93ADF80C300993ADF8203041
:103240000C930027B6F85E00738E4008834234BFAB
:10325000ADF81230ADF81200BDF8120008B9ADF8A3
:1032600012300791DFF85CBA51B90BF158034FF4F3
:10327000C9720BF5867100F0B1FA6FF00F00E7E14B
:10328000307D042818BF072805D002281CBF03285A
:103290006FF00A00F3D1ADF81020E2B106F15E0044
:1032A000418891422FD3808808282CDC4FF6FD728C
:1032B000904228D2D0B106F168014868002804BFC6
:1032C000B06E002807D10BF158034FF4AB720BF12D
:1032D0009C0100F083FA06F15E00B16EB0F8049034
:1032E0008DF80E40002900F0F38012E000F06FFA34
:1032F00004BF00680028EED00BF1580340F25912C9
:103300000BF1D801E5E7B07E40F08000B0769DE19A
:10331000014608680028FBD10591097BC80705997B
:10332000BDF812000A894CBF04250025AA18904256
:1033300007DA0BF1580340F2C7120FF6883100F09C
:103340004DFA059ABDF812101089091A4D1B06F1A5
:103350005E010598CA8841898A4207D00BF158035B
:1033600040F2D5120BF5A07100F038FA06F15E00BC
:10337000C188ADF80C1000293DD0A8B2884207D210
:103380000BF1580340F2D9120FF6503100F026FA33
:103390000598BDF80C100D90BDF81000814234BFA7
:1033A000BDF80C00BDF81000A9B28142B8BF284694
:1033B00006DBBDF80C00BDF81010884288BF084637
:1033C00080B2099009A8BDF80C2007880999D21B82
:1033D000ADF80C206D1ABDF80C0000281CBFBDF81C
:1033E0001000874207D00BF1580340F2E1120FF6AC
:1033F0000C3100F0F3F9BDF81000874262DAA8B290
:1034000000281EBF0599088900285BD0BDF8101060
:10341000A8B2C91B884205980799B2BF2C46BDF8CF
:103420001040E41B0D9001EB07089DF80E00C1074A
:103430001FFA84FA19D59DF80E100191012002900F
:10344000009603ABAAB2A1B20420FFF7ADFE00289C
:1034500006902DD0BDF80C00069BADF8200052461A
:103460005868414601F03AF926E00598416800E0C5
:10347000014608680028FBD1087B012811D1486863
:1034800049890144079881420BD13FB10BF15803A0
:103490004FF403720BF5B87100F0A0F9CDF830A02D
:1034A0000EE00122A1B20420FEF728F900280690C0
:1034B00000F0B080C0F804800698FEF767FB8144F6
:1034C000E719BFB2DDF834A00A9CB8464F4643E086
:1034D00006F15E01C8880028F4D00BF1580340F2D1
:1034E00025220BF5CE7100F079F9EBE70B9838B98E
:1034F0000BF1580340F285220FF6302100F06EF9EF
:103500000B98C0F800A022E05146FEF759FB284670
:10351000FEF73CFBC719BFB20A2F80F255814FF668
:10352000FD70874280F05081002100910022B36D30
:10353000434429463046FFF7D1FD0028824657D044
:10354000BDF80C00AAF80A00002CCFD15446C8449C
:10355000CDF82CA01FFA88F8BDF81000804580F245
:103560001481A0EB0802BDF8120091B2814234BF71
:103570001FFA82F9814607989DF80E1040440A9080
:10358000C80723D5002C0CBF012000200290009614
:1035900003AB9DF80E00BDF81220019049460020B3
:1035A000FFF702FE0028054622D06889484507DA61
:1035B0000BF1580340F241220BF5E67100F00EF9D1
:1035C0000A9968684A4601F089F8A0E7BDF80C003E
:1035D00038B10BF1580340F24B220FF6401100F0C6
:1035E000FDF8012249460020FEF788F85FEA000A4C
:1035F00000F0E8800A98CAF80400002200210020A8
:10360000FEF77CF8002805467FF47EAF0A9450460A
:10361000FEF760FAB07E40F08000B076069808B100
:10362000FEF758FA0A9808B1FFF79BFA06F15E0117
:10363000888858B100F0CBF804BF0068002805D195
:103640000BF1580340F2023200F0C6F84FF0FF30A1
:103650000FB0BDE8F08F218979182181206848B921
:103660006068638907993A46184401F037F8608921
:10367000381860812468002CEDD1059801897918EB
:10368000018105994889B84207DA0BF1580340F2E5
:10369000AE220BF5037100F0A1F805984189CF1B0C
:1036A000478106F15E04BDF80C10E1800698B0B1C8
:1036B000059838B90BF1580340F2BB220BF50E7197
:1036C00000F08CF8059806994068FEF779FA05989D
:1036D000069A01891089059A4118118125E00C98F4
:1036E00080B210B3059800281CBF4068002807D19D
:1036F0000BF1580340F2C1220BF51C7100F06EF87B
:1037000005980C99426803E01389CB18138102468F
:1037100010680028F8D11089538908181081CB1837
:1037200053810598028989180181059800280CBFEA
:10373000B5660560B16D4144B1656088A0EB0800D5
:1037400060800099A180A08858B100F040F804BFC3
:103750000068002805D10BF1580340F2ED2200F07B
:103760003BF8BAF1000F1CBFDAF8100000280AD0AD
:103770005FEA897007D40820FEF7FCFCDAF8101025
:103780008A8910438881002062E780460598009767
:10379000002807999DF80E901CBFBDF82000002856
:1037A000254606D005984289BDF82000059B821861
:1037B0005A81099800283FF474AF05984468099F1E
:1037C000079158E70A9425E70A94284620E706F16E
:1037D00068004168002970470FF26471584600F094
:1037E00065BD2DE9FC478846002718F0030F054604
:1037F000DFF8D09407D109F1580340F21B3209F5E4
:103800002A7100F07EF805F162063088082803DC92
:103810004FF6FD72904202D35FEAC87021D55FEA8D
:10382000887146BF01274FF0040ABA46002251466C
:103830000020FDF763FF040013D06089504507DACC
:1038400009F1580340F2413209F5407100F059F88E
:1038500000974246AB6D21462846FFF73FFC040027
:1038600006D1A87E40F08000A8764FF0FF3046E0F9
:10387000207C10F0030F07D009F1580340F24932C1
:103880000FF2DC6100F03DF8208938B109F15803EE
:1038900040F24A3209F54F7100F033F805F168073C
:1038A000396811B93C6004E0014608680028FBD182
:1038B0000C60002018F0030F708002D0A86D401C2F
:1038C000A8655FEAC87003D5A97E41F02001A976FA
:1038D0006068FEF75BF931884018308080B268B1CB
:1038E0007868002804BF3968002907D109F1580316
:1038F00040F26D3209F55A7100F003F80020BDE87E
:10390000F687484600F0D2BCFEB50646F06CFEF7DE
:1039100037FC0346002200213046FFF779FB040004
:1039200006D1B07E40F00300B0766FF00100FEBD1E
:10393000301D00F01FFF10B96FF003070BE002907D
:10394000321D062001902046717A00913146B37AEB
:1039500001F001F807463D462046FEF7BBF8B07E71
:10396000002D14BF40F0030000F0FC00B076384694
:10397000FEBD2DE9F84F0546DFF84883287D012874
:1039800008D108F1580340F2ED3208F56471404661
:1039900000F08CFCDFF830231068A84200F0E380D0
:1039A00005F14807B98A3888814234BF00910090F8
:1039B000A87E3C6A810709D524B100F032F900F0F5
:1039C000DBF803D22846BDE8F24F9DE77E6A26B1B8
:1039D00000E0064630680028FBD1281D00F0CAFE32
:1039E0005FEA000907D0002D1CBF2868002807D116
:1039F00019F1040002D16FF00300B5E000682860FF
:103A0000002C17D000F00DF9696C2389009A401A38
:103A1000C3189A420FD272B1B98A8A420BD1786A1E
:103A200048B905F194014878002803D1002201200B
:103A30000A7048708FE000F0F4F800F09DF8F9D3B8
:103A400021698889FEF796FB400708D508F15803DD
:103A500040F246420FF22051404600F027FC786ABF
:103A600098B1AA7E12F0440F0FD1396A29B10868C3
:103A700058B90889698E884207D2388B28B1788B6B
:103A8000082802DC12F0A00F65D0287D022806D09D
:103A90001020FEF76FFB21698A891043888100207E
:103AA00060814A462946204600F06DF8010027D182
:103AB00020683862297D022903D0A87E00F0FC002E
:103AC000A87600F0AEF8824600F0EDF910F00301A0
:103AD000208918BF0121504408187968091A48BF85
:103AE000786000F0E0F910F00300218918BF012090
:103AF000401829D000222260786A30B97C6221E027
:103B0000A97E41F08001A9762EE000F08AF83169A3
:103B1000824600F087F8BAEB000012D505F16C0A76
:103B2000DAF8000010B3016900F07CF821698346DF
:103B300000F078F8BBEB000048BFDAF800A0EFD443
:103B400014E03460264602E02046FFF713F83C6A92
:103B5000002C7FF470AF386A08B90021B983A87EC1
:103B600000F07F00A8760020BDE8F28FDAF80000B0
:103B70002060CAF80040EAE7696C2389009A401A7D
:103B8000C01882427047FEB504460E466068C1897F
:103B90000129154601D00020FEBD706AFEF7F0FA3B
:103BA00021698860708DFEF7E5FA2169C881706A25
:103BB000728D8218F26201F11407207BC10709D5CA
:103BC000311D4FF40670FFF775F940F00170FEF7F4
:103BD000D7FA3860B6F93000002844BF002131869A
:103BE000706B28B939490868706300F01AF8B0633F
:103BF0006068216942680489438941608A1A92B2E7
:103C00009B1AA21A0281438100220A820621029590
:103C100001913146727A0092321DB37A00F09BFE18
:103C2000FEBD21694868FEF7ABBA2DE9FF47814622
:103C3000884615469A46002214210120FDF75EFDB4
:103C400004003DD06089142808D21E4800F15803B2
:103C500040F24D5200F1280100F028FB0D9E0C9817
:103C60006768FEF787FA38803046FEF783FA788077
:103C70004846FEF785FA78604046FEF781FAB8605C
:103C800045F21400FEF776FAB881002146F20800EA
:103C9000F88139827982504600F06CFD50B1029073
:103CA00000220620019000922946FF23524620461A
:103CB00000F051FE204604B0BDE8F047FDF70ABF12
:103CC000BDE8FF87B4C70008886C012024000020ED
:103CD00010B500F134039A6B0AB910BD0A46116899
:103CE0000029FBD15C6B1460596B09B951891986A5
:103CF0000022996B59639A63997BFF291CBF491C69
:103D000099731A60BDE8104033E6F8B500F1340548
:103D1000AC6BF4B12168A96300F16806306850B15A
:103D20000169FFF77FFF21690746FFF77BFF3F1A15
:103D300048BF3668F2D4316821603460206808B921
:103D400000212986A87BFF281CBF401CA8730020E7
:103D50002860F1BD38B5044604F14805686AF8B139
:103D6000A07E41071CD42046FFF7CFFFA88A2988F0
:103D7000814238BF084600EBD0704010618E82B29D
:103D8000B2EB410F38BF4800688001EB4101688801
:103D9000091829800020A27E208642F00402A27623
:103DA00031BD3EB50546E86C401EFEF7E9F9034615
:103DB000002200212846FFF72BF9040002D14FF022
:103DC000FF303EBD281D00F0D5FC10B96FF0030593
:103DD00008E000F062F82A1DAB7A2946204600F080
:103DE000BAFD05462046FDF775FE28463EBD2DE985
:103DF000FF410646F46E1CB9B46E0CB9002049E0D0
:103E000000F051F8C00704D521894D1EAD41ED0FDA
:103E100000E000252069436885F00102002130465A
:103E2000FFF7F6F85FEA000808BF4FF0FF3031D027
:103E3000D8F804704DB11120FEF79CF9BA894CF204
:103E4000FF010A401043B88109E0606821890389B5
:103E50005B1A9BB2012207F11401FDF776FFFFF711
:103E6000E0FEF16C401C091A48BFF064301D00F000
:103E700081FC10B96FF0030408E000F00EF8321D69
:103E8000B37A3146404600F066FD04464046FDF7F1
:103E900021FE204604B0BDE8F081029000210620FA
:103EA00001900091704720698089FEF763B9000096
:103EB0006E65656420756E636861696E6564207007
:103EC000627566006D73735F6C6F63616C206973FC
:103ED00020746F6F20736D616C6C0000696E636F8E
:103EE0006E73697374656E74206F76657273697A28
:103EF000652076732E20737061636500696E636F51
:103F00006E73697374656E74206F76657273697A07
:103F1000652076732E206C656E0000006F766572EA
:103F200073697A65203D3D2030000000707265762F
:103F30005F73656720213D204E554C4C000000000A
:103F40007463705F77726974653A2076616C696436
:103F5000207175657565206C656E6774680000007A
:103F60007365672D3E746370686472206E6F742091
:103F7000616C69676E656400525354206E6F7420E3
:103F800065787065637465642068657265210000FA
:103F900030B5C16800220A6000238268D21C9208F2
:103FA000920005E00C6814600A605B1C85882A4456
:103FB000C488A342F6DB30BD38B50024304DA0B232
:103FC00055F82000FFF7E4FF641CA1B20929F6D3DD
:103FD00031BD10B5C068046884B12168016014F077
:103FE000030009D0264800F1700300F14C0140F2B3
:103FF0004912243000F05AF9204610BD002010BDAF
:1040000010B509281E4C0ADB04F1700340F2871238
:104010001CA104F1240000F049F9002010BD54F85F
:104020002000BDE81040D4E738B504460D4615F031
:10403000030009D0DFF848001AA100F1700340F234
:104040009D12243000F032F9E068016829600560B3
:1040500031BD000010B50928094C0ADB04F17003DA
:1040600004F12400BDE8104040F2DB1215A100F07D
:104070001DB921B154F82000BDE81040D4E710BDAF
:10408000C8F300086D656D705F6D616C6C6F633AAD
:104090002074797065203C204D454D505F4D41584E
:1040A000000000006D656D705F667265653A206D99
:1040B000656D2070726F7065726C7920616C6967D4
:1040C0006E6564006D656D705F667265653A20743B
:1040D000797065203C204D454D505F4D41580000A2
:1040E00080B5FEF776F868490868002802BF67497E
:1040F0000868002805D0BDE8084000226449FA207D
:1041000031E06449086001BD6249086868B95E4AE7
:104110001068002802BF5D4A1068002805D00122FF
:104120000A60FA2000225A491DE0704710B5044683
:1041300060688047206858492246BDE8104012E078
:1041400070B50124544D554E56F8340006EBC402A8
:10415000294600F008F8641C062CF5D300F03AFE5E
:104160004F49486070BDF8B505460E461746062013
:10417000FFF746FF04000AD101B0BDE8F04049480E
:1041800000F16803D42200F1280100F08FB800F09C
:1041900021FE434B0146186810B92A46596002E0D7
:1041A0005A6849198A1A00212160A660E760626096
:1041B00028B141688D4204D24D1B456020601C60CF
:1041C000F1BD024661685368CB1A6360116869B13A
:1041D0004E68B34228BF0A46F4D207E09D4202D29D
:1041E00040684519656021601460F1BD0029F5D073
:1041F0004E68F31A4B60F6E7B0B5294C226852B10D
:1042000000239568854204BFD7688F4204D01346C7
:104210001268002AF5D1B0BD1068002B0CBF2060D9
:104220001860106818B143685168CB184360114694
:10423000BDE8B0400620FFF70DBF2DE9F041184C56
:104240002068F0B100F0C6FD6668174D861B0FE0D0
:10425000626882186260361A086820608F68D1F838
:104260000C800620FFF7F6FE38001CBF4046B8471A
:10427000287808B1FDF72EFA216811B14868864206
:10428000E6D2BDE8F08100003000002034000020BC
:10429000E1400008C46D01202D41000808FC000821
:1042A000806D012078F40008D56D01200EB4C0B5F2
:1042B000024603A800210190009101AB01210448AE
:1042C00078440C3000F01AFE06BC5DF810FB00BF0D
:1042D00067BA0000F8B5DFF82C53DFF82C730446FA
:1042E0002868844207D207F1280340F25D120FF2DA
:1042F0001C3100F00AF96868844207D307F12803EB
:104300004FF4AF720FF21C3100F0FFF8207A38B191
:1043100007F1280340F25F120FF2243100F0F5F8A4
:104320002068B0F1011F07D307F128034FF4B172E1
:1043300007F1680100F0E9F8296822688B189C42AF
:104340000ED0187A60B96868834209D0AF689F427E
:1043500008BFAC60186820600F1D1B68661AFE500D
:1043600066688B19A3420BD0187A48B9A868A04296
:1043700008BFAB60206818605A1A2368091DCA502C
:10438000F1BDA04820B500F10F0189080023890084
:1043900001604B600B724FF480320A608B184360EF
:1043A00001251D721A605A60816020BD70B504003D
:1043B0003AD014F00300944D08D005F128034FF4CF
:1043C000D67205F194012846FFF770FF8D4E3068D4
:1043D000844202D371688C4208D305F1280340F26D
:1043E000AF1200BF9DA12846FFF760FF30688442EE
:1043F0001AD371688C4280F0178014F8040C38B915
:1044000005F128034FF4E0729AA12846FFF74EFF0A
:10441000002004F8040CA4F10C00B168884238BFF5
:10442000B060BDE8704055E770BD00002DE9F04177
:10443000C91C89088C000C2C38BF0C2402D3B4F59D
:10444000803F28D86F4E704F80463068804502D339
:104450007168884507D307F128034FF4FA7200BF4B
:1044600089A100F052F83168884544D370688045CE
:1044700041D2A8F10C0358F80C0C5A1A831AA3F174
:104480000C0CA44580F0098007F1280340F20622B5
:1044900083A100F03AF800202EE064452BD001EB18
:1044A000000EA718CB19B5689EF808000C3768B93C
:1044B000DEF80000754504BF03F10C04B46000266B
:1044C0001E75D86000F01AF812D114E01834A44513
:1044D00011D303F10C00A8423CBF03F10C04B460FB
:1044E0000020187558F80C4CDC6000F007F802D07A
:1044F000D868091D0F504046BDE8F0811A6148F8A0
:104500000C7CD868B0F5803F70473846FFF7CEBEC8
:10451000F8B5050045D0C51CAD08AD000C2D38BF61
:104520000C2502D3B5F5803F3BD8364EB2683168D2
:10453000531A00E03B68C5F58034A34231D2CF184E
:104540003C46207A0028F5D12068C01A0C38A842D1
:10455000F0D305F11807B84215D3E8180F184FF03B
:10456000000C87F814C00C30D4F800E0C7F80CE059
:104570003B61206001232372FB68B3F5803F04D0C8
:104580000F1DF85001E00120207294421E4F16D1F9
:104590007368107A38B19A421CBF10680A18F8D1B3
:1045A00001E00020F2BD9A4218BF0028B26006D098
:1045B00007F1280340F2CF2241A1FFF7A6FF706860
:1045C0002D190C35A84207D207F128034FF4357294
:1045D00007F1B801FFF799FF14F003000FD007F1BE
:1045E000280340F2D62207F1E801FFF78EFF07F11A
:1045F00028034FF4367207F58C71FFF786FF04F13C
:104600000C00F2BDD0010020ECE90008706C756769
:104610005F686F6C65733A206D656D203E3D20725A
:10462000616D0000706C75675F686F6C65733A2030
:104630006D656D203C2072616D5F656E64000000E9
:10464000706C75675F686F6C65733A206D656D2D72
:104650003E75736564203D3D203000006D656D5FE3
:10466000667265653A206C6567616C206D656D6F7B
:10467000727900006D656D5F667265653A206D65E3
:104680006D2D3E75736564006D656D5F7472696D47
:104690003A206C6567616C206D656D6F7279000002
:1046A0006D656D5F7472696D2063616E206F6E6CF5
:1046B0007920736872696E6B206D656D6F72790019
:1046C0006D656D5F6D616C6C6F633A20216C667215
:1046D00065652D3E75736564000000004AB10000F9
:1046E00011F8013B521E00F8013B1CBF11F8013BC1
:1046F000F8E77047002201F0B7BBF0B4024610683B
:1047000095681318506803EB5004C0071DD54D443D
:104710001BE013F8017B05F8017B491EF9D1A0B11C
:10472000B60813F8011B06F00306032E08BF13F8A2
:10473000016B01EB06214942801C294405D011F888
:10474000016B05F8016B401EF9D1A3420ED013F89E
:10475000016B16F0030104BF13F8011BC91C3009DB
:104760000F28DAD113F8010B0F30D6E7F0BC02F1B5
:104770000C00704770B50246DFF8DC021468006870
:10478000A0B190F8373003F005010529F7D1416851
:104790000029F4D0856805EA040629408E4204D039
:1047A0009907ECD4C3689C42E9D170BDAB4800685E
:1047B00040B190F8371001F00501052902D1416898
:1047C0000029F2D1002070BD2DE9F84F06468B4636
:1047D000776839780809042868D1880000F03C0817
:1047E0007888FDF7C7FC31898842044603D2214608
:1047F0003046FDF7AFF87089404557DB3189A1425B
:1048000054D3B8F1140F51DB3869954D6861F868DD
:104810002861287D00F0F000E02813D19BF83700D4
:10482000C10733D5DBF8040080B35C4694BB787ACB
:10483000112802BFB91C31F80800B0F5884F29D102
:104840005C4632E04FF001095C46DFF80CA294F8B8
:104850003700C1070AD5606840B16A698242E5D075
:1048600021461046FCF77CFE0028DFD1B9F1000F8D
:104870000ED0287D7F2809D0DAF800404FF00009DB
:104880005C4508BF2468002CE1D1D0E70024CEE7C6
:104890002468F5E7286940B15946FCF761FE28B95C
:1048A000287C00F0F000E02800D01CB93046FDF76D
:1048B00011F909E0F8884FF63F71084207D03046F9
:1048C00001F09CFC060001D1002042E077682C60DA
:1048D000C5F804B0AF60C8F100013878800000F07E
:1048E0003C00A88109B23046FDF7F0F8787A01283B
:1048F0000DD0062806D011280ED15946304601F0B9
:10490000B8FE1FE059463046FBF750FC1AE0594606
:10491000304602F09DF815E068692146FCF720FE5C
:1049200068B9287D00F0F000E02808D04146304604
:10493000FDF7CEF877600221304602F016F93046D6
:10494000FDF7C8F8002028606860A860A881286189
:104950006861BDE8F28F7FB50A9E0C4622B100293E
:104960001ABF09680029341D0999089D0191029612
:104970000095214600F002F804B070BD2DE9F8431F
:1049800006468846F089DFF8DC90012814461D466B
:1049900000F0088009F1280340F2333234A1484680
:1049A000FFF784FC002C38D014213046FDF78EF838
:1049B00010B16FF001004CE070897768142808D2BC
:1049C00009F1280340F2613209F16C014846FFF712
:1049D0006DFC099808993D72787245222068224D35
:1049E00038613A7079703089FDF7C4FB7880002017
:1049F000F8802888FDF7BEFBB8802888401CB8F1F5
:104A0000000F288003D119480168F96002E0D8F846
:104A10000000F8600021798103E071680869009066
:104A20006C460A9821684268914203D1314602F0EF
:104A3000F8F90EE0C18D41B13289914205D20146AB
:104A40002246304601F0BCFC03E043692246314671
:104A50009847BDE8F2830000546D0120586D012095
:104A6000386D0120C4F50008D06D012090FD0008CC
:104A7000702D3E726566203D3D2031000068DFF8F4
:104A8000FC13884200D0704780B586B00022DFF862
:104A9000F0030592016841F000710160026802F0C4
:104AA00000720592002205990592036843F0806325
:104AB0000360016801F0806105910599059232213A
:104AC000036843F0006303600222006800F00060A6
:104AD00005900598DFF8AC03009101920021029146
:104AE00003220B2104910392694602F0E7F9862123
:104AF000009102220021029101920B2103220491D4
:104B000003926946DFF8800302F0D8F9022101918F
:104B1000002202924FF4005000F012F8DFF86C030C
:104B200002F0CCF902210191002202924FF42050B0
:104B300000F006F8DFF8580302F0C0F907B000BD36
:104B40000321009003910B220492694670473EB501
:104B5000002100910121DFF83C43DFF82023616050
:104B6000226001A980224A700023E222CA702382B7
:104B700077228DF804304A71E12300228B70A26104
:104B8000E26113234FF400020B716161226200F1B4
:104B90002E05204602F090FA18B9687A40F0040019
:104BA000687241F61C102218042304F1CC0120463F
:104BB00002F065FB042304F5A67204F14C012046C3
:104BC00002F09AFB0620A87061690878E8706169B4
:104BD000487828716169887868716169C878A871B6
:104BE00061690879E87161694879287240F2DC519D
:104BF000687A298040F00A006872204602F0E5FCDD
:104C000000F00CF8009840F00B0000900B21009A87
:104C1000204602F0A3FC00F001F837BD6A460B21E4
:104C2000204602F05FBC2DE9F84F9A4CE76ABE6857
:104C30004FF000090D46C84639E00BF2F45B09F26B
:104C4000F459B968A6F2F450ABEB060BA9EB0609D0
:104C500082440026881906EB0A0840F2F45398456E
:104C60001DD969689A1B5944FFF738FDFF683868F9
:104C70000028E2D56FF0070004E04946204602F024
:104C80007FFB0020216841F2040211440B699A065F
:104C900003D520230B6100220A60BDE8F28F0E4687
:104CA000696852465944FFF719FD2D68D144002D1B
:104CB000E3D038680028DDD4B5F80AA031464FF0BB
:104CC000000B4646C6E72DE9F84F724E30464FF0CE
:104CD0000009CDF8009002F0C8FB0028C8464BD16F
:104CE000F16BD6F840A088B268B3032289B20420E1
:104CF000FCF704FD5FEA000925D0356B4F46B7F895
:104D00000AB000205246444682460CE01A1BFFF7C8
:104D1000E5FCED68AA680AF2F45AA4F2F450AAEB92
:104D2000040A834400247868111904EB0B0840F24C
:104D3000F45398455044E9D892465A46FFF7CEFCC2
:104D40003F68002FDBD1306B009905E0026842F02C
:104D500000420260491CC068B26B9142F6D3002049
:104D6000B06341F2080231688818C368190603D598
:104D70008022C260002101604846BDE8F28F38B54C
:104D80000546FFF7A0FF040008D02A69294690478E
:104D900020B12046BDE83240FCF79CBE31BD00008A
:104DA00010B5040007D13C4841A100F1280340F2AE
:104DB0002A22FFF77BFA04F1380073217422017074
:104DC0004270364836496061A1612046FFF7BFFE58
:104DD000002010BD02F0BABD3EB50021044601918D
:104DE000009194F837002B4D41072CD5686888B3A3
:104DF0004FF480520021284602F0B0FB02F0A6FDDD
:104E0000019000F04FF802F0A1FD0199401A40F224
:104E1000E93290421ED200988106F2D56A461021EE
:104E2000284602F05FFB009841074CBF4FF400603A
:104E30000020E8600098810759BF4FF48041A960C5
:104E40000020A86011E0284602F0F4FB204600F0A4
:104E500037F837BDA868EA68C0035203000C40EA7F
:104E600012420021284602F079FB0021284602F078
:104E700020FC284602F0A9FBE8E700000080024081
:104E800030380240000802400000024000040240A6
:104E900000180240F8010120F0FA000877870008A6
:104EA000274C00086A460121284602F01BBB00007F
:104EB0006E6574696620213D204E554C4C00000003
:104EC000704730B4002513E050F8042BD30744BFDB
:104ED000A9F101039A18091F042942F8045BFAD2C8
:104EE00013468C0744BF15809B1CC90748BF1D7023
:104EF00050F8041B0029E7D130BC70472DE9F04F72
:104F00000FF2A41CA1B0DCE90089CDE900892A9D3B
:104F1000DFF8DC9B049100248DF843500D944FF092
:104F2000FF38824616461F460FE0B3462C461BF854
:104F3000011B0498D0470028049000F0A2800D982F
:104F4000401C641E0D90F2D176193078252808D1C6
:104F5000002100220791089209910A920B910C926C
:104F60000DE06A464146304602F05FFD050001D182
:104F70000D98A1E0D9D50125E6E741F0010116F829
:104F8000010F2028F9D023280CD02B2804D02D285D
:104F900005D0302809D076E041F00201EFE741F07A
:104FA0000401ECE741F00801E9E741F01001E6E710
:104FB0000F9209E00F98484505DA00EB800402EBF8
:104FC0004402303A0F92761C3278A2F130000A285F
:104FD000F0D330782E2818BFCDF8388022D116F8BB
:104FE000010F2A2807D138683860761C50F8042B46
:104FF00038600E9216E02D280CBF761C002000228F
:105000000E920AE040B90E9A4A4505DA02EB820494
:1050100003EB4403303B0E93761C3378A3F130024C
:105020000A2AEFD3ADF8401021A0317802F00EFD2E
:1050300008B116F8010B8DF842009DF8420068286F
:1050400004D1307868280AD1622105E06C2804BFB9
:1050500030786C2803D171218DF84210761C12A88B
:1050600006903A4616F8013B02A9504600F064F853
:1050700038B912AA02A9504600F0C8F900287FF5F5
:1050800064AF404618E02A2892D13A683A6052F854
:10509000040B3A6000280F9003D540420F9041F076
:1050A0000401761C95E700000000000000000000ED
:1050B000686A6C747A4C000021B0BDE8F08F6228F9
:1050C00020D0682811D06A2803D06C2827D07128F6
:1050D00025D10868C01D20F007000860D0E9002332
:1050E00008300860194610467047002A0A680A60AE
:1050F000106803D0121D0A6000B217E0121D0A608A
:1051000080B217E0002A0A680A60106803D0121DF6
:105110000A6040B20AE0121D0A60C0B20AE0002A2A
:105120000A680A60106803D0121D0A60C117704730
:10513000121D0A60002170477CB50D4611461C46C1
:105140002E69B4F1250200F04F811C3A00F08480F2
:10515000121F022A40F280800E3A00F00981521F8D
:1051600059D0093A78D0921E16D0521E35D0521E10
:10517000022A71D9121F30D0521F00F09880521E9F
:1051800049D0521E00F0E280D21E00F0FF80921E35
:1051900041D0D21E3FD02DE195F83A406C2C09D079
:1051A0006869421C6A610A680A6052F8043B0A6036
:1051B000335429E10A680A6052F8043B0A600093FC
:1051C000002201924FF0FF332B636A46294600F01C
:1051D00098F9002840F1188103E195F83A0001227E
:1051E000FFF76DFFC5E90001002904D56869411C7E
:1051F00069612D220DE0288F810704D56869411C63
:1052000069612B2205E0C00721D56869411C6961ED
:10521000202232541BE095F83A000022FFF74FFF9E
:10522000C5E9000195F83800010710D5D5E900233C
:10523000002B08BF002A0AD044F02000782806D1AD
:10524000686930213154401C421C6A613454214643
:1052500068693044E86087E00868C01D20F00700F6
:105260000860D0E9002308300860C5E90023D5E9CB
:105270000001C80F04D06869411C69612D220DE04E
:10528000288F810704D56869411C69612B2205E0DC
:10529000C00704D56869411C6961202232546869DD
:1052A0003044E8602146284600F036FAACE005F1CB
:1052B0003A02507820B14FF0FF340FF6043074E01A
:1052C0001078622808D0682824D06A2812D06C2868
:1052D0002ED071280ED02BE00A680A6052F8040B19
:1052E0000A6020B94FF0FF340FF6EC205DE0E96A68
:1052F000017089E00A680A6052F8040B0A6020B95C
:105300004FF0FF340FF6D0204FE0EA6AD317C0E920
:10531000002379E00A680A6052F8040B0A6020B999
:105320004FF0FF340FF6B0203FE0E96A01806BE0F8
:105330000A680A6052F8040B0A6020B94FF0FF3483
:105340000FF6942031E0E96A01605DE00A680A60C6
:1053500052F8040B0A60002120F0000221F0FF3314
:10536000C5E90023EE607821284600F02DF94BE0D6
:105370006C2285F83A200B680B6053F8042B0B6005
:1053800052BB4FF0FF340FF684200EE095F83A2020
:105390006C2AF0D00868086050F8044B0860EC6094
:1053A0003CB94FF0FF340FF6482002F05BFB201AA7
:1053B00076BD2E6B002E04D5204602F073FB04460A
:1053C00008E032460021204602F076FB002814BF98
:1053D000041B3446AC6117E0294600F092F800281F
:1053E00012D54FF0FF3076BD6869411C69612522F6
:1053F000325409E06969481C686125227254210011
:1054000002D0431C6B613454002076BD2DE9F0417D
:105410000E4605469046726B7069316AB46A121A7C
:10542000B069521A716A121AF069521A121A96F871
:105430003800141B41070DD4002C0BDD2746B06843
:105440002021A8470028B06057D0F06A401C7F1E7A
:10545000F062F4D1736942463146284600F098FC68
:1054600000284AD1376A002F0ADDB0683021A847EA
:105470000028B06041D0F06A401C7F1EF062F4D179
:10548000B369F2683146284600F082FCA8BB776A0F
:10549000002F09DDB0683021A847B06068B3F06A1A
:1054A000401C7F1EF062F5D1F068B169F3694218C3
:1054B0003146284600F06CFCF8B9B76A002F09DDC8
:1054C000B0683021A847B060B8B1F06A401C7F1EB8
:1054D000F062F5D196F8380041070BD5002C09DDB4
:1054E000B0682021A847B06038B1F06A401C641E43
:1054F000F062F5D10020BDE8F0814FF0FF30BDE84B
:10550000F0812DE9F8470D46A3B02F6B002F06461A
:10551000904648BF6FF000470FF60C1402F0F8FAFF
:10552000D4E90023696B4018CDE90123812828BF05
:105530004FF0FF3042D20024002F33DDD8F80010A6
:1055400001AA684602F079FA8146B9F1000F38D411
:10555000D8F8000010B9B9F1010932D44F4521DB68
:105560006869484481280AD30021696303AA29464F
:105570003046FFF74BFF040014D40020686103ABF2
:10558000D5F814A04A46694603EB0A00FFF7A6F8CF
:10559000CA44C5F814A058F8040B002818BFA7EB9C
:1055A0000907C9D14CB903AA29463046FFF72EFF97
:1055B000044614B9002068616863204624B0BDE841
:1055C000F0874FF0FF34F8E72DE9FC4307466F29D9
:1055D0003E6908BF082405D041F02000782814BF98
:1055E0000A2410243C25D7E90023642918BF69291F
:1055F0009046994605D1002B03D5D8F1000869EBF8
:105600004909B9F1000F08BFB8F1000F1FD1386B7D
:10561000E8B9082C4CD197F83800010748D530205C
:105620003B2586F83B0043E000280ED597F838006C
:1056300000F01400102808D17B6B7969386A5B1A76
:105640001B1A9A1A002AC8BF3A62BDE8F3838DF884
:105650000010404649462246E31702F05FFA303216
:10566000D0B26D1E3A28019504DB9DF80000A0F130
:1056700051018A187255404649462246E31702F006
:105680004DFA80465FEA010908BFB8F1000F03D068
:10569000F86871198842DCD3082C09D197F83800D2
:1056A000010705D5705D302802D06D1E3020705581
:1056B000C5F13C02BA617119F960386B8242B3DA04
:1056C000821A3A624FF6EF70398F01403987BDE890
:1056D000F3832DE9D04306460F4614464FF00008E9
:1056E000DFF8109412E0E00707D542464B463046FB
:1056F000394602F097FA06460F464046494642466A
:105700004B4602F08FFA641080468946002CEAD19D
:1057100030463946BDE8D0832DE9F84F05468A4624
:105720004AF020048EB0D5E90089612C02AE09D080
:10573000286B002848BF062003D408BF672C01D17E
:1057400001202863D5E900014A005215521C0DD1F1
:105750000B030BD0AAF1610103201A29A86102D220
:105760000FF2CC6110E00FF2CC610DE04A0052154F
:10577000521C0ED10B030CD1AAF1610103201A298E
:10578000A86116D30FF2B461E8680322FEF7A6FF02
:10579000C0E1CDE90C01DDE90C2323F00043B3F5B2
:1057A000801F0DD20027002B08BF002A019703D1CC
:1057B00011E00FF28461E7E701AA02F005FB0AE0BD
:1057C000CD48CE4900EB1350DDE90C2301900B408E
:1057D000CB4910461943C5E90001612C0DD1E86899
:1057E00030210170821CBAF1610FEA600CBF782190
:1057F000582141706869801C6861D5E90001CDE9D4
:105800000C01DDE90C2333F0004104BF0028002324
:1058100000F04881612C40F0A080286B49460028A8
:105820004CBF4FF0210B00F1010B4046002200233A
:10583000DDE90C8902F000FB01990BF1010738BF8B
:1058400089F00049091F002F01918DF808200DF102
:10585000090040F33581A949009106464046494672
:105860000022002302F000FB80F029814800400D57
:1058700000F11C0211D0002A0FDD40F2FF739A42A2
:1058800005DBA04909F000400143002011E0009B26
:10589000194041EA025140460BE028F0000039F07F
:1058A000004108BF00280FBF49461C22494602F0AC
:1058B000F3FA8046894602F08DFBFF1F002F044655
:1058C00009DD02F0A5FB02460B464046494602F0C0
:1058D000B1FB80468946F01D072104E004F00F0269
:1058E00000F8012D2411002C01DD491EF6D5491EBA
:1058F0005CBF002200F8012DF9D5DCE0002019463C
:1059000002AA0A4400E05B1E12F80149491E8442C3
:10591000F9D00F2804D10DF10900425C521C425409
:10592000002904D50198001D02AE5B1C0190581E91
:105930000CD43118AAF13A040A783032D7B23A2F8F
:10594000A8BFA218401E01F80129F5D5286B002830
:1059500040F1A780591E2963A3E001996A4A47F2E2
:105960009750414391FBF2F2019229F00046D2F1A7
:10597000070204DD40463146FFF7ABFE0AE0524223
:1059800000206249FFF7A5FE02460B46404631461D
:1059900002F0C2FB8046662C286B06BF019F0A37C7
:1059A00006273F18142FC8BF142730208DF8080091
:1059B00089460DF1090000E03046002F34DD06462F
:1059C0004046494602F0CCFC01460A4606F108036F
:1059D00004200A26B2FBF6F606EB860EA2EB4E0278
:1059E000303203F8012C0A22B6FBF2F202EB820EEF
:1059F000A6EB4E063036401E03F8026DE9D1083F93
:105A0000002F03F10806D7DD084602F0BDFC024670
:105A10000B464046494602F00DFB00223C4B02F08B
:105A200001F980468946CBE70DF10901401A0DF1D5
:105A3000090604E00199491E401E0191761C317847
:105A40003029F7D0662C02D10199491C03E0652C5E
:105A50000CBF012100212B6BCB189842B8BF431E0D
:105A6000002B1ED4834204DAF05C3528A8BF39200D
:105A700000DA30201946721E02EB010800E05B1EBE
:105A800018F80199491E8145F9D0392802D1705C76
:105A9000401C7054002904D50198401C16465B1C1C
:105AA0000190019800B200901BB232465146284640
:105AB00000F034F82EE0C61D002F3FF7CFAE304681
:105AC0000DF10901401A03465845C8BF5B46002B3B
:105AD0000DF109063FF53AAF8342BFF60FAF0DF166
