:020000040800F2
:10000000C07301207D0A0108A5080108A70801089E
:10001000A9080108AB080108AD08010800000000AC
:10002000000000000000000000000000AF08010810
:10003000B108010800000000B3080108B508010874
:10004000B10A0108B50A0108B90A0108BD0A010888
:10005000C10A0108C50A0108C90A0108CD0A010838
:10006000D10A0108D50A0108D90A0108DD0A0108E8
:10007000E10A0108E50A0108E90A0108ED0A010898
:10008000F10A0108F50A0108F90A0108FD0A010848
:10009000010B0108050B0108090B01080D0B0108F4
:1000A000110B0108150B0108190B01081D0B0108A4
:1000B000C3080108210B0108250B0108290B0108C1
:1000C0002D0B0108310B0108350B0108390B010814
:1000D0003D0B0108410B0108450B0108490B0108C4
:1000E0004D0B0108510B0108550B0108590B010874
:1000F0005D0B0108610B0108650B0108690B010824
:100100006D0B0108710B0108750B0108790B0108D3
:100110007D0B0108810B0108850B0108890B010883
:100120008D0B0108910B0108950B0108990B010833
:100130009D0B0108A10B0108A50B0108A90B0108E3
:10014000AD0B0108B10B0108B50B0108B90B010893
:10015000BD0B0108C10B0108C50B0108C90B010843
:10016000CD0B0108D10B0108D50B0108D90B0108F3
:10017000DD0B0108E10B0108E50B010800000000A0
:10018000E90B0108ED0B0108F10B0108F50B010863
:10019000F90B0108FD0B0108010C0108050C010811
:1001A000090C01080D0C0108110C01082DE9FE4F86
:1001B000DFF8688ADFF8687A0646B8F80000401C65
:1001C000A8F80000706878627189142954DBDFF8A0
:1001D000549AD9F80010D9F8140001F0FBF928B9A5
:1001E00099F8140000F0F000E0280DD1B8F80E00E6
:1001F000401CA8F80E0000F05AFA3046BDE8FE4F49
:1002000001F0A2BCBDE8F78F786A00F01CFD000B7E
:1002100081001429A4BF308988422DDBA1F114008C
:1002200038830022BA62DFF800AA72898A4206DBAC
:100230007883494209B2304601F082FC41E03068DF
:1002400030B90AF12803B2220FF2044100F02CFA6F
:100250006FF01301304601F073FC304671897983E9
:100260003C8B641A09B2494209B201F069FC30685A
:100270004189A4B2A14205DAB8F80800401CA8F8E8
:100280000800B8E74168B96221B2494209B201F0F9
:1002900057FC318970890C1B348130B10AF1280375
:1002A000CF220FF2BC3100F0FFF9316830890A89A2
:1002B000904206D00AF12803D0220FF2B03100F0AC
:1002C000F3F9786ADFF864B9008801F08DFF796A84
:1002D0000880488801F088FF796A488001F0A7F813
:1002E000796A4860F862796A886801F083FF796A00
:1002F00088603863786AC08901F076FF796AC881BE
:1003000000F09DFC00F03F00387010F003003189D0
:1003100018BF0120401838840024DBF8005001E0A9
:100320002C46ED68002D00F05F81287D30B90AF180
:100330002803E2220AF1680100F0B6F9287D0A28B4
:1003400006D10AF12803E3220AF1900100F0ACF98A
:10035000287D012806D10AF12803E4220AF1BC0114
:1003600000F0A2F9786A298B0288914202BFE98ADB
:1003700040888142D4D16968D9F81000814202BF17
:100380002968D9F814008142CAD1E968A94206D186
:100390000AF12803EC220AF1E40100F085F93CB1EE
:1003A000E868E060DBF80010E960CBF8005004E09A
:1003B000B8F81400401CA8F81400E868A84206D158
:1003C0000AF12803F4220AF5887100F06DF9002083
:1003D00078603189B981BE600021786A786179637B
:1003E0007970F9833878010703D5707B40F00100FC
:1003F00070736FF00C04686F002875D0284602F007
:10040000B5FBA04205D0686F00281CBF388C0028BF
:100410006AD0688D10B9284603F0F7FA00F047F962
:10042000D7E0E468002C00F0E380207D0A2806D0A5
:100430000AF12803FE220AF59E7100F035F9786A68
:10044000218B0288914202BF4388E08A9842E8D11A
:100450006168D9F81000814202BF2168D9F8140000
:100460008142DED13978480716D4388C8D0714D5EF
:10047000FD6A616AB5EB010C15D4218DACEB01016D
:10048000002910DC019200932918386B09F1100340
:1004900009F1140203F053FCAFE6C90703D5DFF8F6
:1004A000902713682362002804D000F074FB2046D4
:1004B00003F0E0FAA1E6C18A5C88A14209D1016893
:1004C000D9F81440A14218BF002818BF002900F035
:1004D000B5800246C06890E0B8F81410491CA8F82E
:1004E000141000F008F988E6BD63284600F080F992
:1004F000A0426ED0787801070FD5D5F88C201AB1BC
:1005000028696FF00D0190472946584602F0D4FC47
:100510002946012003F04CFE5BE0FA8B42B1EB6F01
:1005200023B1286929469847A04252D00020F88379
:10053000284600F0C2F800284BD1786B30B3D5F8CC
:10054000740030B10AF128034FF4D2724FA100F0C9
:10055000ABF8A87E7A6BC10606D5104601F0F4FA16
:10056000284601F0E4FF34E0D5F8806026B1286920
:1005700000232946B04704E000232946002002F06A
:1005800055FBA04225D008B1786B68677878810662
:1005900016D5686F20B1417B41F0200141730FE017
:1005A000288DB0F5066F1CBF401C2885D5F88060EB
:1005B00036B12869002300222946B047A04208D05E
:1005C0000020B863284600F078F810B9284603F0F8
:1005D00051FA0020B8637863B868002803D001F0AE
:1005E000B3FA0020B8600DE6DFF848160C6819E78A
:1005F000DFF844567B6A2868002200287FF45BAF4E
:10060000988901F0F1FD40073FF5F7ADB8F8040017
:10061000B8F80E10401C491CA8F80400A8F80E10E9
:1006200009F11003786A0188019109F114024088E8
:100630000090398CF86A4118386B2BE7002A3FF498
:100640004BAFC168D1602A68C260286049E70000EA
:10065000702D3E6E65787420213D204E554C4C0027
:10066000702D3E6C656E203D3D203000702D3E7437
:100670006F745F6C656E203D3D20702D3E6E657819
:10068000742D3E746F745F6C656E00007063622D34
:100690003E726566757365645F64617461203D3D9B
:1006A000204E554C4C000000504603F0C9BDB8F830
:1006B0000400401CA8F80400704710B50446DFF899
:1006C00060054178C80614D5A17EC80606D4D4F8C2
:1006D0008C201AB120696FF00E0190472146DFF897
:1006E0004C0502F0E9FB2146012003F061FD0120E9
:1006F00010BD002010BDFEB5DFF82465054630783A
:10070000410773D4C106DFF81C750FD5706A0188E4
:10071000019107F110034088318C009007F1140219
:10072000F06A4118306B03F00AFBF7BD80075DD516
:10073000687D02F0BDFA040011D1DFF8980CB0F822
:100740009C10491CA0F89C10AB69002B4ED0286966
:1007500003B0BDE8F0404FF0FF3200211847786940
:10076000206003223969616004F15C07E88AE08255
:10077000716A088820832275F06A401C6062E0621A
:10078000204602F0DFFB6065E0646064A065F06A0B
:10079000401E206528692061FD61287A00F00C0068
:1007A0002072DFF8880400F0EFF9DFF82C1C01203C
:1007B0000870204600F059FE706AC0893880788041
:1007C000211D608E02F0C4FB60861221204603F0DA
:1007D00075F830B1204603B0BDE8F040002101F0CB
:1007E0004ABE2046BDE8FE4003F044B9F7BD000014
:1007F0002DE9FE4FDFF82874DFF82C8404463878A2
:10080000410704F1440628D5207D022805D1386B24
:10081000B168884240F0A5810CE0616AFA6A8A42B8
:1008200013D138B908F1280340F2E7220FF238312A
:1008300000F0BDF9787840F008007870A07E00F0F4
:10084000FE00A0766FF00D008CE1511A00F1898155
:10085000208D091A0029DDDC8EE0800704D5207D7B
:10086000022818BF0328F7D1A07EC10603D4DFF801
:10087000C00302682262002084F8960041F21C192D
:10088000204600F0F2FDFA6A388C97F800A07B6AE7
:10089000DFF890E3DFF89453101802900AF010018B
:1008A00094F814B0386BABF1020BBBF1070F65D8AD
:1008B000DFE81BF008007C00D800E1000D01D80043
:1008C0001E0147010AF01205122D02BF35686D1C8A
:1008D000A84254D1511C6162E1623060521ED88935
:1008E00030837083F26004202075211D608E02F039
:1008F0002FFB42004A458CBF13464B466086810061
:10090000994238BF800003D34A458CBF4000484617
:10091000B080F08B38B908F1280340F21A320FF694
:10092000C83100F044F9F08BB56A411EF18365B916
:10093000756A3DB908F1280340F222320FF6C03142
:1009400000F035F92868706201E02968B162284634
:1009500002F04AF9B06A00280EBF4FF0FF300020C5
:1009600084F842002086336C33B12069002221468E
:10097000984710F10D0F41D000F00DF9F1E000297A
:10098000FCD0198801915A88029900920EF1100347
:100990000EF1140203F0D3F994F84200062804DAA9
:1009A00000212186204603F021FADAE000294ED00A
:1009B0003168411A491E3ED4B168411A00293ADC17
:1009C00004202075706BB0B1806948B908F1280324
:1009D00040F251320FF63C3100F0E9F8706B50B143
:1009E000706B83693BB1206900222146984740B172
:1009F00010F10D0F02D0204601F099FD6FF00C00B0
:100A0000B0E000F0C6F8F88B08B1401EF883608EA5
:100A100042004A458CBF13464B468100994238BF7D
:100A2000800003D34A458CBF40004846B0807878A8
:100A300081061CD495E01A8801920EF1140259889F
:100A400000910EF11003029903F079F989E05FEA51
:100A50008A70FBD5616A491E8A4202D1204603F0A2
:100A6000E2F97EE000F095F87878810679D500F01B
:100A700092F8072129E000F08CF87A783878396B01
:100A8000930600F0100017D590B1B268914204BFF0
:100A9000706A00280CD100F083F82868A04239D091
:100AA00000E00846002840D0C168A142F9D13AE0F0
:100AB00000F071F8082108E0002852D0B268914295
:100AC00004BF706A00284CD10621217549E000F06E
:100AD00060F87878810644D500F062F82868A04272
:100AE00018D000E0084600B3C168A142FAD11AE06C
:100AF00000F04FF83878C10633D5386BB1688842BA
:100B000004BF706A00282CD1204602F0B2F9286890
:100B1000A04204D12868C168296006E0084620B1D7
:100B2000C168A142FAD1E168C1600020DFF8A828BD
:100B3000E060012111700A2020753E4800F024F881
:100B40000FE000F026F83878C1060AD5386BB16896
:100B5000884204BF706A002803D1787840F0100002
:100B600078700020BDE8FE8F7463705F696E7075E9
:100B7000743A207063622D3E737461746520213D68
:100B800020434C4F534544000168E160046003F08A
:100B90007FBB20465AE0A07E40F00200A07670475E
:100BA000A07E40F00200A076204602F062B94046E6
:100BB00003F046BB70B505460C46296900F03FF8C6
:100BC000C00713D5204602F006F8002423E000F009
:100BD0003AF8C00706D5012001F006FB29698A8989
:100BE000104388812046246801F0FEFF9CB12069F3
:100BF0000B492A89C96A436826898A18D31A9B1B1C
:100C0000E5D54368D21A002A05DD591A298189B22F
:100C1000686800F0D9FE2C6070BD00009A67012062
:100C2000386D0120406E0120ACF00008300000203B
:100C300024000020340000202C0000200169888955
:100C400001F0D2BA6869808901F0CEBA2DE9F84F77
:100C50000646DFF88898307D042807DA09F1280372
:100C60004FF481620FF6CC0100F0E9FBDFF8705819
:100C70002878C10606F1440740F1438139693C8B6D
:100C8000D7F80C80E86AD5F824C02B6B0A19B8EBAA
:100C9000000E09D402D1B1EB030805D499421ED14C
:100CA000BCF80E108C421AD2BCF80E10F86006F197
:100CB000440C8846BCF81A403983A04538BFA0468A
:100CC00006F19404A7F81A803B61607821B930B925
:100CD00001212070617002E008B10020607009F508
:100CE000B674D7F800C00FF66808A3EB0C00002814
:100CF00006F1420128DC288C002801BF3869B7F8CA
:100D000018E0704490421CD1B6F93000002818D485
:100D10009C4516D14878421CD3B2984238BF4A70DD
:100D20004878042807DBB888718E09188AB2904287
:100D300000D2B980A4E00328FCD1304603F098F833
:100D40009EE0002048709BE0401E72D4B868181ADC
:100D500000286EDCB07E420704D500F0FB00B076C0
:100D6000F888B88000220A70B6F93C00B6F93E2037
:100D700002EBE002A6F84020002048703B60317D85
:100D8000042935DBB888F9888842718E04D20918A5
:100D90008AB290422CD20AE0494391FBF0F1091843
:100DA00006F1440089B28388994238BF1946B98058
:100DB0001EE0DAF80000B86200F020FBF98B8142F7
:100DC00005D209F1280340F29E4200F037FB00F003
:100DD00015FB00F017FBF88B50B1B86A40B9786A80
:100DE000F8B909F1280340F2A742414600F027FB79
:100DF000B86AB0B100F01AFB8346B86AFFF71EFF6D
:100E0000D7F828A02A6BBAF8081010F0030018BF12
:100E1000012059444018801A0028CADDBAF1000F99
:100E200002D14FF0FF3000E0002030860020F07645
:100E300026E0304602F0E9FD22E0DAF800007862B0
:100E400000B9388400F0DAFAF98B814205D209F151
:100E5000280340F2D54200F0F1FA00F0CFFA00F09A
:100E6000D1FAF88B60B1B86A002804BF786A00280C
:100E700006D109F1280340F2DD42414600F0DFFAD5
:100E8000786AB8B100F0D2FA8346786AFFF7D6FEE6
:100E9000D7F824A0BAF8082010F00301286B18BF77
:100EA0000121A0EB0B039A1A511A03D4B968401A16
:100EB0000028C2DDB98BE88B4118B983706B00B391
:100EC000B26B296B521A1CD5DFF818261368B6F9D5
:100ED0003C10181A00B2A0EBE1004118B18704B22F
:100EE000002CB6F93E2048BF40428018A0EBA2007B
:100EF000F0870904C91401FA80F0A6F84000002127
:100F00007163288CE96A002800F05082327D072A3C
:100F100080F24C82726AA2EB0108B8F101035DD441
:100F2000A8EB0000401C59DCAC683CB909F128036F
:100F300040F23C520FF2386100F081FA47F6FF7040
:100F4000804507DB09F1280340F23D520FF2306182
:100F500000F075FAA8680FF2486A4189414525DA20
:100F60000089404507DA09F1280340F23F520FF2A9
:100F7000206100F064FAA8680089A0EB080005E091
:100F8000A8EB010800212081618124686189414525
:100F9000F6DBC8F100080FFA88F1204600F0D0FD1A
:100FA00090B109F1280340F24C520AE0C8F1000860
:100FB0000FFA88F100F0C4FD30B109F1280340F2C6
:100FC0005152514600F03BFA716AAA89E86A521AF6
:100FD0008218AA81E9626869416005E0891A03D52F
:100FE000B07E40F00200B076716AEA6A531A00F1EE
:100FF000D881308D1B1A5B1C00F3D381914209F517
:10100000CA7A40F01381FFF71DFE00F013FA18BFF3
:1010100001204018288480B2328D82422BD2FFF703
:1010200011FEC00709D56969FFF709FE00F03E000F
:1010300001F0DAF86A6900F0D7F9308DA8816969A2
:10104000FFF7FDFD00F0E9F9FFF7FCFD00F0F2F914
:1010500018BF012040182884EA6A716A12FA80F0E9
:10106000328D8A18904206D009F1280340F27F524F
:10107000514600F0E4F9F86A002857D0FFF7E2FD86
:10108000C00707D5F86A002850D00168F96201F05E
:10109000ABFDF7E7FC6A1BE0FFF7D5FDC00713D5F2
:1010A0006969FFF7CCFD80070ED4012001F09CF8A0
:1010B00069698A891043888101F096F800F0BAF9CD
:1010C00018BF0120401828842046246801F08CFDB8
:1010D0005CB32069E96A2A8C4368B4F808808A18EE
:1010E000D31AB3EB0803D7D54368D21A002A1CDD04
:1010F000591AA981FFF7A6FD00F08FF9FFF7A2FDAD
:1011000000F098F918BF012040182884226951681E
:10111000EA6A12FA80F0884207D009F1280340F207
:10112000AF5209F5E67100F08AF9FC62288CE96A91
:1011300009187162328D824207D209F1280340F208
:10114000B9520FF2704100F07AF9318D288C091AEA
:101150003185304601F08FFAA968088910B16963BA
:101160000020A860FFF76EFDC00703D5697841F045
:1011700020016970FC6A002C00F025812169486813
:10118000716A884240F01F81E8622069FFF75BFDC9
:1011900010F003002289716A18BF012080184118DD
:1011A00071622169FFF74BFD10F003002289318D38
:1011B00018BF01208018814207D209F1280340F2AC
:1011C000DE5209F5027100F03AF92069FFF73BFDA4
:1011D00010F00300318D228918BF0120891A081AE6
:1011E0003085304601F047FA6168088938B1686B8C
:1011F00000280CBF696300F01DFD002060602069BD
:10120000FFF721FDC00708D5697841F0200169701A
:10121000307D042804BF072131752068F86220461C
:1012200001F0E2FCA6E740F00100C9E0304602F020
:10123000ECFBD7F82C80B8F1000F03D100F0DBF8FD
:10124000F862BEE00024D8F81020E96A50688142B4
:1012500008D0B4B9081A1DD500F0CDF80028F0D098
:10126000F8620CE0B8F80800A9898842E9D200F0D9
:10127000C2F80028E5D0002C14BF2060F862414677
:1012800027E023695868081A401E03D45068081ADA
:10129000401C0BDDD8F8000018B95368C91A0029A2
:1012A0001ADC44465FEA0008CDD18AE000F0A3F8DA
:1012B0000600FAD02069238900F090F806DD426824
:1012C0006068891A218189B200F07EFB2660414660
:1012D0003046BDE8F44F6DE4908900F085FFC0070B
:1012E0006FD400F088F80028C8F8000069D0D8F85A
:1012F0001000B8F8083000F071F808DD4268D8F83E
:101300000400891AA8F8081089B200F05DFB288C47
:10131000EA6A716A1218308D521A121A002A50DDC8
:10132000D8F800100869FFF78EFCC0070DD5D8F873
:1013300000100869FFF787FC00F03E0000F054FF42
:10134000D8F800100A6900F04FF8726A308DE96A27
:101350008218D8F80000511A018189B2406800F063
:1013600033FBD8F80000FFF769FCD8F800100A89B1
:1013700010F0030018BF012080182884E96A726AFF
:1013800011FA80F0318D511888421AD009F12803E2
:101390005146484601B0BDE8F04F40F27B6202F092
:1013A0004FBF3046BDE8F24F02F02FBB706A091AFA
:1013B00003D4308D091A491C03DDB07E40F00200D1
:1013C000B076BDE8F18FB07EC1077FF52CAF00F09D
:1013D000FE00F3E708670120200000204268E96A68
:1013E000D218521A002A704793894CF2FF010B4021
:1013F000184390817047281D01F006BCDAF80400FC
:1014000000F0FEBBF98B081AF883BAF80810E88BD5
:101410000818E883504601F0E7BB800702D5A98988
:10142000481EA881A989A86800F0CEBA0169486859
:1014300000F0E0BE10F00300A9897047214648463D
:1014400002F0FEBE10B526498A8B886A531C10B183
:101450004C8BA24204D2486A8B831044007D10BD9D
:10146000121BD2B28B83805C10BDF8B51C4D2C8B47
:10147000064664B30020A88317E0FFF7E3FF0428C3
:1014800025D1A98B891C8C4221DBFFF7DBFF0746A6
:10149000FFF7D8FF40EA072040F21922904201DA14
:1014A000010001D14FF406707086A88BA0420ED2C5
:1014B000FFF7C8FF58B10228DFD0F6D3FFF7C2FF0D
:1014C0000228A1BFA98B801E4118A983EDDAF1BDC6
:1014D0000348417841F0100141707047ACF00008BA
:1014E000386D0120240000207063622D3E736E640D
:1014F0005F71756575656C656E203E20300000007B
:101500006E6F207365676D656E7420746F206672F0
:10151000656500007063622D3E6C697374656E656D
:10152000722D3E61636365707420213D204E554CE1
:101530004C0000007463705F726563656976653A9C
:101540002077726F6E67207374617465000000000D
:101550007463705F726563656976653A2076616C65
:101560006964207175657565206C656E67746800C7
:10157000696E7365672E7020213D204E554C4C00DE
:10158000696E73616E65206F666673657421000015
:101590007062756620746F6F2073686F72742100BB
:1015A000706275665F686561646572206661696C0A
:1015B000656400007463705F726563656976653A9F
:1015C000207463706C656E203E207263765F776E68
:1015D000640A0000C24318BF002810D091F83720D9
:1015E00093070ED54A6890420BD0896801EA000340
:1015F0000A40934202BFC9430840884201D10120FA
:101600007047002070470000F8B50C4684B00178A0
:101610006A4606E003A98A424BD242F8045B10F8FE
:10162000011FA1F130030A2B43D200250A233029E0
:101630000ED110F8011F782914BF5829102305D0A6
:10164000082305E003FB0511A1F1300510F8011F87
:10165000A1F130060A2EF5D3102B42D1A1F161067B
:10166000062E24BFA1F14107062F3AD21A2E34BF0D
:10167000612641260A31891B41EA0515E6E7B5F5E1
:10168000803F3EBF0098B0F5807FB6F5807F10D2D6
:1016900041EA064713E0B5F5807F3CBF0098B0F5FE
:1016A000807F06D2B6F5807F3CBF0298B0F5807F80
:1016B00001D3002013E041EA064747EA00273D43F3
:1016C00007E01D481DA100F1280340F2031202F0BB
:1016D000B7FD1CB1284600F08DFD2060012005B04B
:1016E000F0BD2E2996D0002918BF202908D00C293A
:1016F00018BF0A2904D00D291CBF09290B29D8D1EC
:101700000098019E01066846131A9B105B1C042B6F
:10171000D7D8DFE803F0070608050400D1E7BAE7E9
:10172000ADE7D6E7C5E7B5F1807F3CBF0098B0F5DF
:10173000807FBED20D43CCE730050108756E68612D
:101740006E646C656400000010B5DFF81418DFF8F3
:10175000142800200870146800E0E46834B1206F99
:101760000028FAD001F037FA0021216710BD0000EF
:101770002DE9F84F04281446DFF8ECB71ED8DFE84F
:1017800000F00317191B1B003625032C0F4600F22F
:10179000D880DFE804F0A0CACA02082002F0DAFC10
:1017A0000600DFF8BC8710D1012088F80000C1E0F6
:1017B0002225EAE70E25E8E70025E6E70BF12803F6
:1017C0004FF48B720FF2E071C1E0032030730021FF
:1017D0003160EC1C711901F11000C01CA4088008D4
:1017E000A4008000C4F514747060A742378138BF2C
:1017F0003D4605D3ED1C4FF6FC700540C5F514754C
:1018000075810BF19800009006F518797168708960
:101810000844814506D200990BF128034FF49872D1
:1018200000F09EF83CB90BF128034FF499720BF1CC
:10183000CC0100F095F870890FF2887A0121F181CE
:1018400035463F1A39E003200021207361734FF6BB
:10185000FF72216097422C6006DB0BF128034FF4E6
:10186000A672514600F07CF8B8B2B0F5147F27811B
:101870002CBF4FF414703846608104F11000606092
:10188000217911F0030F07D00BF128034FF4A9724F
:101890000BF5807100F064F8706871890144894526
:1018A00006D200990BF1280340F2551200F058F8C7
:1018B00061890120E0817F1A2546012F2EDB082057
:1018C00002F048FC0400BED1012088F80000304638
:1018D00000F03AF92EE005F11300C91C80088908D0
:1018E000800000EB8100B0EB810F23D302F0D6FE25
:1018F00006001FD070191030C01C8008800000F056
:1019000029F83173307910F0030F07D00BF1280359
:1019100040F277120BF5987100F022F80120F08167
:10192000002171733046BDE8F28F072002F012FCEF
:10193000060001D10020F6E7002000F00BF8347318
:10194000ECE70BF128034FF4C6720FF28C6100F044
:1019500007F8EFE7706037817781002131607047C9
:10196000584602F06DBC000038B50446042C1846F9
:1019700010D8DFE804F003090B0D0D003824059B97
:101980006518AB4212D20FE02424F8E71024F6E7E2
:101990000024F4E7DFF8D00500F1280340F2C51277
:1019A00000F5AE7102F04CFC002032BD049B002516
:1019B000056003B123444360027302230181418126
:1019C00001224373C28132BD2DE9F84304000E4663
:1019D000DFF8945507D105F1280340F2F3120FF216
:1019E000146100F05AF8207B032818BF01280BD09F
:1019F000002818BF022807D005F1280340F2F7128B
:101A00000FF2086100F049F82789BE4243D2F71B64
:101A10000FF228680FF2106918E0361A4FF6FF70BF
:101A20008742B6B206DB05F1280340F20B22494695
:101A300000F033F8208938182081246834B905F182
:101A4000280340F20F22414600F027F86089B04297
:101A5000E3DB207BB0B96089864213D0617B8807C5
:101A600010D46168091B16FA81F1204602F09AFD34
:101A7000040007D105F1280340F21D220FF2D451D2
:101A800000F00BF8668160892081206808B100F0C1
:101A90005BF800202060BDE8F183284602F0D0BB4F
:101AA000F8B5DFF8C44448B904F1280340F23F22F6
:101AB0000FF2BC51204602F0C3FB34E00B0032D0E1
:101AC0004E4200290BD537464389BDB2AB4207D2FF
:101AD00004F1280340F247220FF2A0512BE08FB20D
:101AE000037B4568002B18BF032B07D100F11003BF
:101AF000AA199A42426010D245601FE0022B18BF1B
:101B0000012B12D1002904D54289BFB2BA4202D2B8
:101B100014E013DD92B1AA194260428903898A1840
:101B2000C918428101810020F2BD04F1280340F26E
:101B300077220FF26851204602F082FB0120F2BDAD
:101B40000022ADE70122ABE72DE9F0410400DFF808
:101B5000186409D106F1280340F2D2220FF2105185
:101B600000F09FF8002049E0207B002818BF0128E2
:101B70000BD0022818BF032807D006F1280340F233
:101B8000DE220FF2285100F08CF800270FF23458B3
:101B9000E08930B906F1280340F2EB22414600F01B
:101BA00080F8E089401EE08180B230BB617B25680F
:101BB000207B8A070DD5206938B906F1280340F249
:101BC000F92206F5C07100F06CF8216920468847BB
:101BD00010E0032802D12146082005E0012818BFA3
:101BE000022804D12146072002F0E2FA02E0204652
:101BF00002F090FC7F1C2C00CAD1F8B2BDE8F08145
:101C00000146002001E00968401C0029FBD180B298
:101C1000704770B1C189491CC18189B249B9DFF8E7
:101C200048030FF2B84100F1280340F2393202F0C4
:101C300007BB704770B504000D4618BF002DDFF8D4
:101C400028630FD106F1280306F5D2713046BDE8AE
:101C5000704040F24D3202F0F3BA21892A895118BE
:101C60002181044620680028F7D1208961898842B3
:101C700007D006F1280340F2553206F5EE7100F068
:101C800010F8206838B106F1280340F256320FF2FE
:101C9000604100F006F821892889411821812560DA
:101CA00070BD304602F0CCBA10B50C46FFF7C2FF4B
:101CB0002046BDE81040ACE72DE9F0470546002678
:101CC00000270C46002D18BF002C6FF00F08DFF81E
:101CD000989203D028892189884262D209F1280389
:101CE00040F2BD3209F50C7147E060686B68C119BC
:101CF0001FFA8AF2981902F0D9FD56446889B6B2E3
:101D00005744B042BFB207DA09F1280340F2CD329E
:101D10000FF2EC3100F050F86089B84207DA09F1AF
:101D2000280340F2CE320FF2F03100F045F860891E
:101D300087426889A4BF00272468864202BF002624
:101D40002D68002D11D02CB160892189884201D1E4
:101D50002068B0B92DB168892989884201D12868E5
:101D6000D0B9F4B90020BDE8F087002CFAD009F111
:101D700028034FF476720FF2BC3100F01DF8404694
:101D8000F1E709F1280340F2DE3209F5187100F09D
:101D900013F86FF00500E6E709F1280340F2E3329B
:101DA000F3E763896889811BDA1B9142ACBFA3EB1F
:101DB000070AA0EB060A98E7484602F041BA2DE967
:101DC000F8430446894617460026674834B900F1AF
:101DD000280340F2FE320FF26C3108E0B9F1000F37
:101DE00009D100F1280340F2FF3200F5237102F01F
:101DF00027FA00200BE0B0461FE0658998B240B199
:101E0000A84206D324685B1B002CF6D1B0B2BDE813
:101E1000F283ED1AADB2B8B29BB2A8426068B8BF07
:101E2000BDB2C1181FFA88F02A46484402F03EFDB0
:101E30002468AE19A8447F1B0023B8B20028E5D05F
:101E4000E2E730B143899942A2BFC91A89B200685A
:101E5000F7DA02B111807047F3E72DE9F84F9146A8
:101E60004D4600266FF00F04DFF8FCA030B90AF1F0
:101E7000280340F284420FF2EC2106E049B90AF14E
:101E8000280340F285420FF2F42100F03CF820468E
:101E900037E002894A450AD20AF1280340F2864215
:101EA0000FF2F42100F02FF84FF0FF3029E00FF28D
:101EB000083B8846044616E034B90AF1280340F28C
:101EC0008E42594600F01FF86089AFB2B842B8BFE1
:101ED000074660683A4608EB060102F0E7FCBE19C7
:101EE0002468ED1BB6B2A8B20028E5D14E4507D054
:101EF0000AF1280340F299420FF2D42100F003F8CE
:101F00000020BDE8F28F504602F09AB9F8B50D46B0
:101F100016466A461946FFF79FFF04001DD0BDF81C
:101F200000302189F218914217DB6789D4F804C088
:101F3000F81AB042BABFFF1ABFB237463A4629462E
:101F40000CEB030002F0B2FCF61BB0B238B1206813
:101F5000B2B2E919FFF781FFF2BD4FF0FF30F2BDD9
:101F6000B96F01203000002014EA000880B56A46ED
:101F7000FFF767FF38B1BDF800104289914202D2E5
:101F80004068405C02BD4FF0FF3002BD1CB51446F6
:101F90006A46FFF761FF30B1BDF8001042899142F7
:101FA0003CBF4068445413BD706275665F616C6CE1
:101FB0006F633A206261642070627566206C61799B
:101FC0006572000072656D5F6C656E203C206D610E
:101FD000785F7531365F7400706275665F616C6C36
:101FE0006F633A206572726F6E656F7573207479D6
:101FF00070650000706275665F7265616C6C6F631E
:102000003A207020213D204E554C4C007062756680
:102010005F7265616C6C6F633A2073616E652070EE
:102020002D3E74797065000067726F77203C206DDB
:1020300061785F7531365F7400000000706275660C
:102040005F7265616C6C6F633A207120213D204E98
:10205000554C4C006D656D5F7472696D20726574CE
:1020600075726E65642071203D3D204E554C4C00CC
:102070007020213D204E554C4C000000696E63726B
:10208000656D656E745F6D61676E697475646520FA
:102090003C3D20702D3E6C656E0000006261642046
:1020A00070627566207479706500000070627566F4
:1020B0005F667265653A2073616E6520747970653C
:1020C00000000000706275665F667265653A207098
:1020D0002D3E726566203E203000000070627566FD
:1020E00020726566206F766572666C6F77000000FF
:1020F000702D3E6E657874203D3D204E554C4C0051
:102100006F66667365745F746F203C3D20705F740A
:102110006F2D3E6C656E00006F66667365745F665A
:10212000726F6D203C3D20705F66726F6D2D3E6C4E
:10213000656E0000705F746F20213D204E554C4C41
:1021400000000000706275665F636F70795F706198
:10215000727469616C3A20696E76616C69642062A0
:1021600075660000706275665F74616B653A206920
:102170006E76616C696420627566000070627566D7
:102180005F74616B653A20696E76616C6964206486
:102190006174617074720000706275665F74616B67
:1021A000653A20627566206E6F74206C6172676597
:1021B00020656E6F75676800706275665F74616B2D
:1021C000653A20696E76616C69642070627566009C
:1021D000646964206E6F7420636F707920616C6C29
:1021E00020646174610000000146000A40EA012099
:1021F00080B270470146080200F47F000A0A40EAF4
:10220000016002F47F42104340EA1160704770B5EC
:1022100010F8014B11F8013B9C4209D044F0200515
:10222000A5F161061A2E0BD243F020039D4207D17F
:1022300013465A1E002B18BF002CE9D1002070BD98
:10224000012070BD704780B500F05BFCDFF8540AD8
:102250000178491C0170C80702D5BDE80140B2E20F
:1022600001BD00007CB504460029227DDFF8385A04
:10227000DFF8386A4CD0042A18BF072A48D1606FAB
:10228000002804BF208DB0F5066F41D0A07EC106A6
:1022900000F1078006F1280340F20F1261A100F05F
:1022A0004DFA208B0190231DE18A00912246616A3C
:1022B000E06C01F044FD204600F0DBFD2869A042FF
:1022C00003D1C068286106E0084620B1C168A14278
:1022D000FAD1E168C1600020E06001212970207D11
:1022E000042808D10A2121756869E0606C6101F059
:1022F000CFFF002076BDDFF8B80A0168A14202D105
:10230000FFF7E6F8F5E72146012001F051FFF0E77D
:102310001AB1022A3FD013D346E0E08A0028F2D057
:10232000A868A04203D1C068A86006E0084620B1B2
:10233000C168A142FAD1E168C1600020E060E2E733
:102340007CB906F12803C02243A100F0F7F9002070
:10235000017D012905D006F12803C12238A100F032
:10236000EDF901210FF22842002652F82100006801
:1023700004E0836FA34208BF8667C0680028F8D1D5
:10238000491C0429F1D3214605F10C0000F094FD0D
:1023900021460220B9E7214605F1100000F08CFD2E
:1023A000012028702146B0E72046BDE8764000BFF6
:1023B00038B5050040F00980DFF8F00826A100F1EB
:1023C000280340F24D1201F03BFF287D032804D082
:1023D00004280AD0072813D019E0284600F0ACFEE4
:1023E000040007D10520287505E0284600F0A4FE6A
:1023F0000400F7D06CB9284601F03CFB204632BD02
:10240000284600F099FE0400F4D10920EBE70020F3
:1024100032BD14F1010FF1D1A87E40F00800A8767A
:10242000F5E700007063622D3E666C6167732026DD
:102430002054465F5258434C4F534544000000001F
:102440007063622D3E7374617465203D3D204C497C
:102450005354454E0000000070636220213D204E21
:10246000554C4C00017D012903D0817E41F01001C3
:1024700081760121F6E62DE9FE4F04468B46207D4C
:10248000012807D100F08CF94FF4F07200F16801D7
:1024900001F0D6FE217DDFF810780A290BD1214604
:1024A00007F1140000F008FD214603B0BDE8F04F2D
:1024B000012001F07DBEE06C02900025666AD4F830
:1024C0008CA0D4F81080E08AA94621B960B100F050
:1024D0006CF9E56008E08146214607F1100000F044
:1024E000EBFC01205D463870E06E08B100F073FB34
:1024F000A06E08B100F06FFB206F08B100F06BFB1D
:102500004DB1208B0190CDF80090231D02982246FA
:10251000314601F014FC214600F0AAF85FEA0A00F7
:1025200003D06FF00C014046D047BDE8F78F012182
:10253000A1E70000F8B50C00054608BFDFF8984A8F
:10254000002D18BF002C13466FF0050609D0287D1A
:1025500048B100F025F94FF4117200F19C0101F02F
:102560006FFE3046F2BD180006D100F0EBF8030014
:1025700018D16FF00100F2BD5FF0000684A757F894
:10258000260002685AB1D08A984206D1BAB11168C1
:10259000A9B1206898B1814211D0D268F2E7761CC7
:1025A000042EECDB206800B12860DFF8300AEB82F3
:1025B0008168E960856001F06BFE0020F2BD6FF07C
:1025C0000700F2BD80B50846FFF7B1FF6FF00C00C1
:1025D00002BD0022F8B506461446307D002550B1F4
:1025E00000F0DEF84FF42D7200F1C40101F028FE76
:1025F0006FF00E0036E0022001F0ACFD050008BFD0
:102600004FF0FF302ED03069DFF89C762861012032
:10261000F18AE9822875717D6975307A2872B17AFC
:10262000A972707A687231682960F08A70B1B868EE
:10263000B04203D1C068B86006E0084620B1C16866
:10264000B142FAD1F168C1600020F060314600F07B
:102650000FF8DFF88C09A861F968E960FD6001F006
:1026600017FE002004B120702846F2BD2946ED680F
:10267000012001F09DBD70B50446218D656A628E12
:10268000681840F23146B242E36AA8BF4FF486624E
:10269000C01A821A01D4618570BDE81A0028C8BF2B
:1026A00000250DDC5D1BB5F5803F09D3DFF834094B
:1026B0000FF64C1100F128034FF4427201F0C0FDF7
:1026C0006585002070BD70B504460D46207DDFF89D
:1026D0001469012807D106F128034FF4487206F166
:1026E000E80100F02BF8208D40F661022D18A9B208
:1026F0009142258506DAADB285B9207D072818BF3D
:10270000092803D14FF40660208507E006F128036D
:1027100040F22D3206F5887100F010F82046FFF7E0
:10272000AAFFB0F5067F08DBA07E40F00200A0768D
:102730002046BDE8704001F09DB970BD304601F003
:102740007FBD000070B5002211A3DFF89C482188EE
:10275000481C4FF6FF75A94208BF4FF44040208047
:1027600000252088E9B253F82110096800E0C96803
:1027700049B1CE8A8642FAD1521C90B2B0F5804F50
:10278000E5DB002070BD6D1CE9B20429EADB70BDF9
:102790002C00002028000020300000203400002001
:1027A000DFF8400800F128037047B868A04203D161
:1027B000C068B8607047084620B1C168A142FAD12C
:1027C000E168C16070472DE9FE4FDFF8DC64DFF897
:1027D000DCA47068401C70607078401C707036E13A
:1027E000ED68002D00F08581287D38B90AF12803B5
:1027F0004FF47C720AF5B27100F080F9287D01284F
:1028000007D10AF1280340F2F1320AF5C87100F04D
:1028100075F9287D0A2807D10AF1280340F2F2321F
:102820000AF5DE7100F06AF97078697F8142D7D0CD
:10283000297D4FF0000B02296877D84605F1400941
:1028400005F1940706D199F802000628A8BF4FF0B9
:10285000010B68DA99F802200C2AA8BF4FF0010B8F
:1028600054DA7878C0B10FF640010844397810F88E
:10287000010C8142BCBF491C39703978814245DB6B
:10288000284601F042FB002840D1387078780628AD
:102890003CD8401C787039E0B5F9300003005CBFCB
:1028A000401C2886D9F82C0080B3B5F93000B9F95E
:1028B000003098422ADB02290ED0B5F93C00B5F968
:1028C0003E100C2A01EBE00128BF0C220FF2C87069
:1028D00082569140A9F8001005F1400005F1400131
:1028E000A5F8308000898A8B698E904288BF104697
:1028F000490040088BB2984238BF0846A9F80A0040
:10290000688EA9F80800284601F070FA287D06288C
:1029100009D1A87EC10606D57068296A401A2928FF
:1029200028BF0BF1010B287A010729D5287D04283F
:1029300018BF072824D17168286ADFF8B026081A62
:10294000D9F8501052184FF4FA73B2FBF3F38342E4
:1029500004D20BF1010B4FF0010811E0BA78DFF857
:10296000903603FB02114FF4FA72B1FBF2F181428F
:1029700006D2284601F0A3FA10B9B878401CB87006
:10298000D9F8300078B171682A6AB9F900304FF08F
:10299000060C891A13FB0CFC614504D300F01BF9EB
:1029A0000020C9F830000BF10101287D032804D173
:1029B00070682A6A801A292805E0092805D17068FC
:1029C0002A6A801AF12828BF8B465FFA8BF000280C
:1029D00040D0D9F84C70284600F04BFA002C3069F2
:1029E0000CD0854207D10AF1280340F289420AF54A
:1029F000F67100F083F8E868E0600BE0A84207D0C9
:102A00000AF1280340F28D420AF5067100F076F8CB
:102A1000E8683061B8F1000F0AD0288B01902B1DB7
:102A2000E98A00912A46696AD9F80C0001F087F911
:102A3000D5F81080FFF71AFE0020002F307008D064
:102A40006FF00C014046B8473078002801D0356956
:102A50000024C6E62C46E07E217FED68401CE0762F
:102A6000C0B28842F5D30020E0763070D4F88820D8
:102A70003AB120692146904731780029E7D10028F2
:102A800001D100F070F8ACE6A84207D00AF12803A3
:102A900040F2CF420AF5277100F030F8E868706123
:102AA000FFF7E4FD45B3287D0A2807D00AF1280383
:102AB00040F2BD420AF5117100F020F87068296AF1
:102AC000401AF12812D3284600F0D3F97069002C7F
:102AD000DAD0854207D10AF1280340F2CB420AF549
:102AE0001D7100F00BF8E868E060D9E72C46ED684E
:102AF000D8E775690024D5E7BDE8F78F504601F0A7
:102B00009FBB70B5DFF8D4546878401C68702C699E
:102B10001EE06077A07EC10705D500F021F8A07EF9
:102B200000F0FC00A076A07E010705D500F0F700BC
:102B3000A0762046FFF73CFCE668606F38B10021C4
:102B40002970204600F012F828780028DFD134469A
:102B50002CB16878617F8142DBD1E468F8E770BD11
:102B600040F00200A076204600F084BF2DE9F0413D
:102B7000054600206F6FD5F880407E7B6867002C8B
:102B800003463A46294602D02869A04701E000F0F2
:102B90004DF801006FF00C0812D1B00618D5288D41
:102BA000B0F5066F1CBF401C2885D5F880407CB16D
:102BB0002869002300222946A047404508D101E0AA
:102BC000404501D1404604E06F676FF0040000E02B
:102BD0000020BDE8F08110B5002803E0046800F093
:102BE00003F82000FAD110BD10B5040009D06068C8
:102BF00008B1FEF7A9FF2146BDE81040032001F00F
:102C0000D7BA10BD4175704738B50546032001F0AD
:102C1000A1FA040001D1002032BD1422294601F09E
:102C200045FE6068FEF7F5FF204632BD10B5140082
:102C3000084607D02189FFF746FD2046FEF784FFAE
:102C4000002010BD002BFBD1BDE81040FFF70ABCEF
:102C5000B0B5082818BF0928044608D013480FF259
:102C6000BC3100F1280340F2DC5201F0E9FADFF850
:102C70006C3318695F680021002209E0057DA542D8
:102C800005D1056A7D1B8D4224BF29460246C068D6
:102C90000028F3D12AB1BDE8B04000211046FFF76B
:102CA000EABBB0BDBA6F012020000020D8DE0008CA
:102CB0002DE9F041064600F083F80400DFF81C53CC
:102CC0004DD168696C680022002106E0036AE31AAE
:102CD000934224BF1A460146C0680028F6D111B1BC
:102CE0000846FFF724FC00F06BF80400DFF80483CB
:102CF00033D10920FFF7ACFF00F062F804002AD1BD
:102D00000820FFF7A5FF00F05BF8040021D1802E1A
:102D1000ACBF7F22324628696F68002300210CE097
:102D2000447DA24222BFD0F820C0A7EB0C0C9C45EA
:102D300002D3634601462246C0680028F0D111B193
:102D40000846FFF7F4FB00F03BF804002CD000F03D
:102D500031F800F02FF800F02DF800F02BF8982152
:102D6000204601F0AFFD04F1480066754FF486611E
:102D700001834FF40662628522854FF40673FF22B9
:102D8000A27263860622A4F84020E28701234FF056
:102D9000FF32228603806A6822626B78964A6377E4
:102DA00041808264954981632046BDE8F08100003E
:102DB000706D0120D8F8C40081884A1E8280704757
:102DC000012001F0C7B9FFE7402071E700B10161C0
:102DD000704738B504000D460CD0207D012807D17E
:102DE000FFF7DEFC40F2BB6200F5317101F028FA1A
:102DF000C4F8805031BD38B504000D460BD0207D9D
:102E0000012807D1FFF7CCFC40F2CC6200F53B7102
:102E100001F016FAE56731BD38B50C4668B100F12E
:102E200014052878012807D1FFF7BAFC4FF4DC62BB
:102E300000F5457101F004FAAC6731BD18B1027DAF
:102E4000012A08BF816170470000000070B5044688
:102E50000D46207D0128164607D1624873A100F176
:102E6000280340F2037201F0EBF9C4F8885026778A
:102E700070BD38B50546287D00281CBF0A280128EA
:102E800019D005F16404206918B1FEF75DFE002039
:102E90002061E068FFF79FFE0020E0604FF0FF3107
:102EA00029866068FFF797FEA068FFF794FE002070
:102EB0006060A060208031BD38B502460C461068C5
:102EC000A04203D1C068106006E0084620B1C16886
:102ED000A142FAD1E168C1600022E2602046FFF71A
:102EE000C8FF207D0A2809D0012827D0A07EC1076D
:102EF00004D5FFF735FE207D01281FD0A06EDFF836
:102F0000E45038B105F1280340F253724FA128462E
:102F100001F096F9E06E38B105F1280340F25472E1
:102F200050A1284601F08CF9206F38B105F1280333
:102F300040F2567252A1284601F082F90020207515
:102F4000E08231BD254A9069516808189061704748
:102F500010B50446084601F0F5FC00281EBFC08DE0
:102F600001B2002904D0283880B2844288BF0446C8
:102F7000204610BD38B50446084600E0284638B162
:102F800001682268C568914208BFFFF7D0FAF5E7EB
:102F900031BD70B504001CBF206800280D4619D053
:102FA0000E4E31692046FFF7E5FFB1682046FFF776
:102FB000E1FF002D1CBF286800280BD0F068002816
:102FC00007E002682368C1689A4204BF2E68066061
:102FD0000800F6D170BD0000A00A01082000002002
:102FE000C5250008D8DE0008CC010020B84C0A0036
:102FF000F82401000867012000DD6D002D2C000879
:103000006E65775F7263765F616E6E5F776E642068
:103010003C3D20307866666666000000696E766129
:103020006C6964207374617465000000696E766178
:103030006C696420736F636B65742073746174656D
:1030400020666F7220706F6C6C000000756E736587
:103050006E74207365676D656E7473206C65616B4B
:10306000696E6700756E61636B6564207365676D7B
:10307000656E7473206C65616B696E67000000009B
:103080006F6F736571207365676D656E7473206C07
:1030900065616B696E67000001020304050607079E
:1030A000070707070700000003060C1830607800C8
:1030B0002DE9F0410E46054611468919143198460E
:1030C000002289B20120FEF753FB040031D0608951
:1030D00006F11401884208DADFF8080D00F1580300
:1030E000732200F1280101F0ABF86768E88AFFF766
:1030F0007BF838803606288BFFF776F87880C7F89B
:103100000480B60E686AFFF775F8761DB86036035E
:1031100046F01006B0B2FFF767F8B881688DFFF788
:1031200063F8F881002038827882698D686A4118D6
:10313000E9622046BDE8F08138B50546AC6EC4B101
:1031400000E0044620680028FBD121698889FFF748
:103150004BF810F0070F0CD10120FFF745F821695B
:103160008A8910438881A87E40F02000A87600203C
:1031700032BD2846BDE8344001219FE32DE9F047E8
:10318000089D8146E8074CBF042600260F4692465C
:103190009846032000F0DEFF040003D13846FEF716
:1031A000D3FC23E025730020206067603989B14299
:1031B00080F20880DFF82C0C20A100F15803BA221D
:1031C00001F03EF83889801B00212081618138465A
:1031D0001421FEF7B5FC58B1DFF80C0CB0F8A410C0
:1031E000491CA0F8A4102046FFF7FEFC002023E0B5
:1031F000606841682161B9F81600FEF7F5FF2169A2
:103200000880B9F81800FEF7EFFF216948804046B2
:10321000FEF7F0FF21694860701006EB9076B6105B
:10322000761D4AEA063188B2FEF7DEFF2169888101
:103230000020216948822046BDE8F087702D3E7449
:103240006F745F6C656E203E3D206F70746C656EB0
:1032500000000000F8B50D461E4691422B461AD2DA
:10326000079989070BD4069CA17E4F0613D40899B1
:1032700029B1A16E002904BFE16E00290BD003F231
:103280001B239B08B2EB830F31BF134605F21B23B0
:103290004FF6FC74234000221946FEF769FA040039
:1032A00001D10020F2BDD4F8000040B1DFF8340BAA
:1032B00006A100F158034FF4887200F0C1FF608945
:1032C000401B3080258165812046F2BD6E656564B6
:1032D00020756E636861696E656420706275660052
:1032E0002DE9F04F8DB01C46064600230793059349
:1032F0000B930A93ADF80C300993ADF81A300C9388
:103300009A46B6F85E00738E00254008834234BFAB
:10331000ADF81230ADF81200BDF8120008B9ADF8E2
:1033200012300891DFF8BC8A51B908F158034FF404
:10333000C97208F5867100F0A7FC6FF00F00F6E186
:10334000307D042818BF072805D002281CBF032899
:103350006FF00A00F3D1ADF8102002B306F15E0160
:10336000BDF810304A889A424FF0FF3036D3898832
:1033700008292CDC4FF6FD73994228D2D1B106F111
:1033800068014868002804BFB06E002807D108F122
:1033900058034FF4AB7208F19C0100F075FC06F184
:1033A0005E00B16EB0F804B08DF80E40002900F058
:1033B000F78019E000F07DFA04BF00680028EED025
:1033C00008F1580340F2591208F1D801E5E7DFF897
:1033D000181AB1F89C20521CA1F89C20B17E41F033
:1033E0008001B176A3E1014608680028FBD1059170
:1033F000097BC8070599BDF812000A894CBF04274C
:103400000027BA18904207DA08F1580340F2C712B1
:103410000FF6D03100F038FC059ABDF81210108973
:10342000091ACF1B06F15E010598CA8841898A42B4
:1034300007D008F1580340F2D51208F5A07100F04A
:1034400023FC06F15E00C188ADF80C1000293AD0CB
:10345000B8B2884207D208F1580340F2D9120FF6E9
:103460009C3100F011FCBDF80C10BDF81000DDF827
:1034700014A0814238BF0846B9B28142B8BF38466D
:1034800006DBBDF80C00BDF81010884288BF084666
:1034900080B2099009A8BDF80C2005880999521B33
:1034A000ADF80C207F1ABDF80C0000281CBFBDF839
:1034B0001000854207D008F1580340F2E1120FF6E0
:1034C0005C3100F0E1FBBDF81000854266DAB8B26D
:1034D00000281EBF0599088900285FD0BDF810108C
:1034E000B8B2491B8842B1BFADF81870BDF81000E2
:1034F000401BADF8180008999DF80E00DDF814A0E7
:10350000BDF818904C19C1071AD59DF80E100191FD
:1035100001200290009603ABBDF81810BAB2042047
:10352000FFF798FE002807902DD0BDF80C00079BF0
:10353000ADF81A004A465868214601F0B7F925E06F
:10354000DAF8041000E0014608680028FBD1087B87
:10355000012811D1486849890144089881420BD15A
:103560003DB108F158034FF4037208F5B87100F04B
:103570008BFBCDF830900DE0012249460420FEF788
:10358000F7F80028079000F0AD8044600798FEF738
:1035900037FB8344BDF818004519ADB20A9C44E0DE
:1035A00006F15E01C8880028F8D008F1580340F2FF
:1035B000252208F5CE7100F067FBEFE70B9838B9CC
:1035C00008F1580340F285220FF6802100F05CFBE1
:1035D0000B98C0F800A024E05146FEF72BFB3846BC
:1035E000FEF70EFB58441FFA80FBBBF10A0F80F276
:1035F0005D814FF6FD70834580F058810021009178
:103600000022B36DEB1839463046FFF7B7FD0028AE
:10361000824655D0BDF80C00AAF80A00002CCDD186
:1036200054464D44CDF82CA0ADB2BDF810008542F3
:1036300080F21A81421BBDF8120091B2814234BF60
:103640001FFA82F9814608989DF80E1040190A90D9
:10365000C80723D5002C0CBF012000200290009643
:1036600003AB9DF80E00BDF81220019049460020E2
:10367000FFF7F0FD0028074622D07889484507DA91
:1036800008F1580340F2412208F5E67100F0FCFA17
:103690000A9978684A4601F009F9A0E7BDF80C00DC
:1036A00038B108F1580340F24B220FF6901100F0A8
:1036B000EBFA012249460020FEF75AF85FEA000AB9
:1036C00000F0F2800A98CAF80400002200210020CD
:1036D000FEF74EF8002807467FF47EAF0A94504666
:1036E000FEF732FAB07EDFF8001740F08000B076C7
:1036F000B1F89C00401CA1F89C00079808B1FEF7A7
:1037000023FA0A9808B1FFF766FA06F15E01888885
:1037100058B100F0CEF804BF0068002805D108F1C8
:10372000580340F2023200F0ADFA4FF0FF300DB016
:10373000BDE8F08F218959442181206848B960682B
:10374000638908995A46184401F0B0F860895844D2
:1037500060812468002CEDD10598018959440181CC
:1037600005994889584507DA08F1580340F2AE2216
:1037700008F5037100F088FA05984189A1EB0B0167
:10378000418106F15E04BDF80C10E1800798B0B1EC
:10379000059838B908F1580340F2BB2208F50E71BC
:1037A00000F072FA059807994068FEF743FA059809
:1037B000079A01891089059A4118118125E00C9812
:1037C00080B210B3059800281CBF4068002807D1BC
:1037D00008F1580340F2C12208F51C7100F054FAB8
:1037E00005980C99426803E01389CB1813810246AF
:1037F00010680028F8D11089538908181081CB1857
:1038000053810598028989180181059800280CBF09
:10381000B7660760B16D4919B1656088451B658061
:103820000099A180A08858B100F043F804BF006857
:10383000002805D108F1580340F2ED2200F022FAE9
:10384000BAF1000F1CBFDAF8100000280AD05FEAB6
:10385000897007D40820FEF7C7FCDAF810108A89AF
:1038600010438881002062E70599CDF800B0002957
:103870000898BDF810509DF80E901CBFBDF81A10A6
:103880000029274606D005994A89BDF81A10059BDC
:103890008A185A81099900293FF473AF05994C6839
:1038A000DDF824B0089055E70A941BE70A943846DF
:1038B00016E706F168004168002970472DE9F84FC6
:1038C000884618F0030F05464FF0000ADFF81495FC
:1038D00007D109F1580340F21B3209F52A7100F0B3
:1038E00091F805F16206DFF800753088082803DCDE
:1038F0004FF6FD7290420CD35FEAC87009D4B7F856
:103900009C10491CA7F89C10A87E40F08000A87667
:103910002CE05FEA887046BF4FF0010A4FF0040BBD
:10392000D346002259460020FDF722FF040014D0A0
:103930006089584507DA09F1580340F2413209F528
:10394000407100F05FF8CDF800A04246AB6D214613
:103950002846FFF713FC04000BD1A87E40F080003E
:10396000A876B7F89C00401CA7F89C004FF0FF30E9
:1039700046E0207C10F0030F07D009F1580340F215
:1039800049320FF2FC6100F03DF8208938B109F1AD
:10399000580340F24A3209F54F7100F033F805F14F
:1039A0006807396811B93C6004E0014608680028DE
:1039B000FBD10C60002018F0030F708002D0A86DBE
:1039C000401CA8655FEAC87003D5A97E41F02001BC
:1039D000A9766068FEF714F931884018308080B20B
:1039E00068B17868002804BF3968002907D109F157
:1039F000580340F26D3209F55A7100F003F80020C7
:103A0000BDE8F28F484600F01BBCFEB50646F06CE0
:103A1000FEF7F0FB0346002200213046FFF748FB8B
:103A2000040006D1B07E40F00300B0766FF00100D4
:103A3000FEBD301D00F086FF10B96FF003070BE0EC
:103A40000290321D062001902046717A0091314685
:103A5000B37A01F098F807463D462046FEF774F821
:103A6000B07E002D14BF40F0030000F0FC00B076E3
:103A70003846FEBD2DE9F84F0546DFF86883287DFE
:103A8000012807D108F1580340F2ED3208F56471BE
:103A900000F0FAF8DFF838251068A84200F0E2805C
:103AA00005F14807B98A3888814234BF00910090F7
:103AB000A87E3C6A810709D524B100F03CF900F0EA
:103AC000DAF803D22846BDE8F24F9EE77E6A26B1B7
:103AD00000E0064630680028FBD1281D00F032FFC8
:103AE0005FEA000907D0002D1CBF2868002807D115
:103AF00019F1040002D16FF00300B4E000682860FF
:103B0000002C17D000F017F9696C2389009A401A2D
:103B1000C3189A420FD272B1B98A8A420BD1786A1D
:103B200048B905F194014878002803D1002201200A
:103B30000A7048708EE000F0FEF800F09CF8F9D3AF
:103B400021698889FEF750FB400707D508F1580323
:103B500040F246420FF2405100F096F8786A98B170
:103B6000AA7E12F0440F0FD1396A29B1086858B9FA
:103B70000889698E884207D2388B28B1788B08284B
:103B800002DC12F0A00F65D0287D022806D010209C
:103B9000FEF72AFB21698A89104388810020608111
:103BA0004A462946204600F072F8010027D12068D5
:103BB0003862297D022903D0A87E00F0FC00A87697
:103BC00000F0B9F8824600F009FA10F003012089EC
:103BD00018BF0121504408187968091A48BF786055
:103BE00000F0FCF910F00300218918BF01204018F3
:103BF00029D000222260786A30B97C6221E0A97E57
:103C000041F08001A9762EE000F095F831698246F6
:103C100000F092F8BAEB000012D505F16C0ADAF860
:103C2000000010B3016900F087F82169834600F0B5
:103C300083F8BBEB000048BFDAF800A0EFD414E033
:103C40003460264602E02046FEF7CEFF3C6A002C98
:103C50007FF471AF386A08B90021B983A87E00F0FB
:103C60007F00A8760020BDE8F28FDAF8000020601F
:103C7000CAF80040EAE7696C2389009A401AC01824
:103C8000824270470FF2D831404600F0D9BAFEB5F3
:103C900004460E466068C1890129154601D00020FE
:103CA000FEBD706AFEF7A6FA21698860708DFEF786
:103CB0009BFA2169C881706A728D8218F26201F1E3
:103CC0001407207BC10709D5311D4FF40670FFF79B
:103CD0003FF940F00170FEF78DFA3860B6F9300018
:103CE000002844BF00213186706B28B9B9490868A3
:103CF000706300F020F8B06360682169426804894D
:103D0000438941608A1A92B29B1AA21A02814381A6
:103D100000220A8202953449B1F89020521CA1F881
:103D20009020062101913146727A0092321DB37AB9
:103D300000F029FFFEBD21694868FEF75BBA2DE956
:103D4000FF478146884615469A46002214210120E5
:103D5000FDF70EFD040043D06089142808D22148E5
:103D600000F1580340F24D5200F1280100F068FACA
:103D70000D9E0C986768FEF737FA38803046FEF7DC
:103D800033FA78804846FEF735FA78604046FEF709
:103D900031FAB86045F21400FEF726FAB881002126
:103DA00046F20800F881398279820F48B0F8901005
:103DB000491CA0F89010504600F0C4FD50B102908C
:103DC00000220620019000922946FF2352462046F9
:103DD00000F0D9FE204604B0BDE8F047FDF7B4BEC0
:103DE000BDE8FF87FCD300080867012010B500F18B
:103DF00034039A6B0AB910BD0A4611680029FBD139
:103E00005C6B1460596B09B9518919860022996B52
:103E100059639A63997BFF291CBF491C99731A60E7
:103E2000BDE8104026E6F8B500F13405AC6BF4B1FE
:103E30002168A96300F16806306850B10169FFF795
:103E40007BFF21690746FFF777FF3F1A48BF3668B7
:103E5000F2D4316821603460206808B900212986D5
:103E6000A87BFF281CBF401CA87300202860F1BD60
:103E700038B5044604F14805686AF8B1A07E4107E8
:103E80001CD42046FFF7CFFFA88A2988814238BF7B
:103E9000084600EBD0704010618E82B2B2EB410F49
:103EA00038BF4800688001EB410168880918298003
:103EB0000020A27E208642F00402A27631BD3EB5EB
:103EC0000546E86C401EFEF795F9034600220021E6
:103ED0002846FFF7EDF8040002D14FF0FF303EBD59
:103EE000281D00F02FFD10B96FF0030508E000F069
:103EF00062F82A1DAB7A2946204600F044FE0546AA
:103F00002046FDF721FE28463EBD2DE9FF4106462D
:103F1000F46E1CB9B46E0CB9002049E000F05EF8F4
:103F2000C00704D521894D1EAD41ED0F00E00025ED
:103F30002069436885F0010200213046FFF7B8F898
:103F40005FEA000808BF4FF0FF3031D0D8F80470A6
:103F50004DB11120FEF748F9BA894CF2FF010A4031
:103F60001043B88109E06068218903895B1A9BB21C
:103F7000012207F11401FDF722FFFFF7DCFEF16CCF
:103F8000401C091A48BFF064301D00F0DBFC10B97A
:103F90006FF0030408E000F00EF8321DB37A3146EA
:103FA000404600F0F0FD04464046FDF7CDFD2046BA
:103FB00004B0BDE8F0810849B1F890200290521C8D
:103FC000A1F8902006200021019000917047000088
:103FD000706D01202400002008670120206980897D
:103FE000FEF702B96D73735F6C6F63616C20697368
:103FF00020746F6F20736D616C6C0000696E636F6D
:104000006E73697374656E74206F76657273697A06
:10401000652076732E20737061636500696E636F2F
:104020006E73697374656E74206F76657273697AE6
:10403000652076732E206C656E0000006F766572C9
:1040400073697A65203D3D2030000000707265760E
:104050005F73656720213D204E554C4C00000000E9
:104060007463705F77726974653A2076616C696415
:10407000207175657565206C656E67746800000059
:104080007365672D3E746370686472206E6F742070
:10409000616C69676E656400525354206E6F7420C2
:1040A00065787065637465642068657265210000D9
:1040B00030B5016900220A600023C268D21C920850
:1040C000920005E00C6814600A605B1C05892A44B4
:1040D0004489A342F6DB41688C600068086030BD0B
:1040E000F8B500243D4D3E4E56F824703846FFF793
:1040F000DFFF786805EB8401641C092CC1F8C0005F
:10410000F2D3F1BD38B5054628690468DCB12168F1
:10411000016014F0030009D0314800F1700300F190
:104120004C0140F24912243000F08AF86868C168F6
:10413000491CC1606968CA680B699A4238BF1A464F
:104140000261204632BD68688188491C8180002058
:1041500032BD000010B50928214C0ADB04F17003C0
:1041600040F287121FA104F1240000F069F800203A
:1041700010BD54F82000BDE81040C3E738B5044630
:104180000D4615F0030009D0DFF854001DA100F121
:10419000700340F29D12243000F052F86068C1684C
:1041A000491EC160206901682960056031BD0000B9
:1041B00010B509280A4C0ADB04F1700304F124004D
:1041C000BDE8104040F2DB1216A100F039B821B171
:1041D00054F82000BDE81040D0E710BD086701206A
:1041E0003C0001086D656D705F6D616C6C6F633ACA
:1041F0002074797065203C204D454D505F4D4158ED
:10420000000000006D656D705F667265653A206D37
:10421000656D2070726F7065726C7920616C696772
:104220006E6564006D656D705F667265653A2074D9
:10423000797065203C204D454D505F4D4158000040
:104240000EB4C0B5024603A800210190009101AB55
:104250000121044878440C3000F040FD06BC5DF8B4
:1042600010FB00BFE3C7000080B5FDF7ECFF684915
:104270000868002802BF67490868002805D0BDE823
:10428000084000226449FA2031E06449086001BD19
:104290006249086868B95E4A1068002802BF5D4A32
:1042A0001068002805D001220A60FA2000225A492D
:1042B0001DE0704710B50446606880472068584983
:1042C0002246BDE8104012E070B50124544D554E11
:1042D00056F8340006EBC402294600F008F8641CC6
:1042E000062CF5D301F066FE4F49486070BDF8B565
:1042F00005460E4617460620FFF72CFF04000AD19C
:1043000001B0BDE8F040494800F16803D42200F153
:104310002801FFF795BF01F04DFE434B0146186899
:1043200010B92A46596002E05A6849198A1A0021D0
:104330002160A660E760626028B141688D4204D2C6
:104340004D1B456020601C60F1BD024661685368EA
:10435000CB1A6360116869B14E68B34228BF0A4640
:10436000F4D207E09D4202D24068451965602160A1
:104370001460F1BD0029F5D04E68F31A4B60F6E7E2
:10438000B0B5294C226852B100239568854204BF1C
:10439000D7688F4204D013461268002AF5D1B0BD09
:1043A0001068002B0CBF20601860106818B14368BB
:1043B0005168CB1843601146BDE8B0400620FFF7B6
:1043C000F7BE2DE9F041184C2068F0B101F0F2FD84
:1043D0006668174D861B0FE0626882186260361AA5
:1043E000086820608F68D1F80C800620FFF7E0FE97
:1043F00038001CBF4046B847287808B1FDF7A4F93B
:10440000216811B148688642E6D2BDE8F08100001B
:10441000300000203400002069420008A46F012011
:10442000B542000818090108606F0120EC0001087E
:10443000B96F0120F8B5DFF88853DFF888730446B8
:104440002868844207D207F1280340F25D120FF278
:104450008C3100F0A4F86868844207D307F1280380
:104460004FF4AF720FF28C3100F099F8207A38B126
:1044700007F1280340F25F120FF2943100F08FF839
:104480002068B0F1011F07D307F128034FF4B17280
:1044900007F1680100F083F8296822688B189C42B4
:1044A0000ED0187A60B96868834209D0AF689F421D
:1044B00008BFAC60186820600F1D1B68661AFE50AC
:1044C00066688B19A3420BD0187A48B9A868A04235
:1044D00008BFAB60206818605A1A2368091DCA50CB
:1044E000F1BDB74820B500F10F018908002389000C
:1044F00001604B600B724FF480320A608B1843608E
:1045000001251D721A605A608160AF48C0F8B02062
:1045100020BD0000F8B5040040D014F00300A94FFE
:1045200007D007F128034FF4D67207F1940100F089
:1045300036F8A34E3068844202D371688C4206D3A9
:1045400007F1280340F2AF12B8A100F028F8306854
:104550009E4D844202D371688C4203D32889401C4B
:104560002881F1BD0C3C94F8080030B907F128030C
:104570004FF4E072B3A100F012F800202072B1688D
:104580008C4238BFB4602B68216830685B1AE2182F
:10459000121A2A602046BDE8F2404BE7F1BD3846CA
:1045A000FFF74EBE2DE9F843C91C89088C000C2C7E
:1045B00038BF0C2402D3B4F5803F2CD8804E814FF5
:1045C00080463068804502D37168884507D307F17B
:1045D00028034FF4FA7200BF9FA1FFF7E0FF316894
:1045E0007A4A884502D37068804503D31189491CF3
:1045F000118150E0A8F10C00431A58F80C0CC51AB0
:10460000A5F10C0CA44508D207F1280340F20622BC
:1046100097A1FFF7C4FF00203EE064453BD001EBCB
:104620000009E0180F1800F10C0EB56899F80800A1
:1046300088B9D9F800004D4504BF07F10C05B560F5
:1046400000263E75F8603B6148F80CECF868B0F560
:10465000803F17D11AE004F1180084451BD307F1FD
:104660000C00A8423CBF07F10C05B560002038756E
:1046700058F80C6CFE603B6148F80CECF868B0F53B
:10468000803F03D0F868091D41F800E01168A1EBF4
:104690000C00044414604046BDE8F2832DE9F0416B
:1046A00005000ED0C51CAD08AD000C2D06D20C25A2
:1046B000434E3168B268A2EB010C07E0B5F5803FCC
:1046C000F6D90020BDE8F081D7F800C0C5F58038E4
:1046D000C44540D201EB0C07387A0028F4D1386881
:1046E000A0EB0C040C3CAC42EED305F118039C4249
:1046F000DFF8DCE01AD305EB0C000C18002323755F
:104700000C303B68E360C4F810C0386001233B7292
:10471000E368B3F5803F1CBF0C1DE050DEF808C015
:1047200005F10C006044CEF8080008E001233B725C
:10473000DEF808400019C01B0B18CEF8083097426D
:10474000204C1AD17368107A50B19A421CBF10687D
:104750000A18F8D104E01E480188491C0180B0E71E
:104760009A4218BF0028B26000F0078004F12803C5
:1047700040F2CF2246A100F02DF87068ED190C35FB
:10478000A84207D204F128034FF4357204F1B801AE
:1047900000F020F817F003000FD004F1280340F2D6
:1047A000D62204F1E80100F015F804F128034FF4D3
:1047B000367204F58C7100F00DF807F10C0081E7FA
:1047C000D00100203CF6000808670120BC670120EA
:1047D000B46701202046FFF733BD0000706C756799
:1047E0005F686F6C65733A206D656D203E3D207289
:1047F000616D0000706C75675F686F6C65733A205F
:104800006D656D203C2072616D5F656E6400000017
:10481000706C75675F686F6C65733A206D656D2DA0
:104820003E75736564203D3D203000006D656D5F11
:10483000667265653A206C6567616C206D656D6FA9
:10484000727900006D656D5F667265653A206D6511
:104850006D2D3E75736564006D656D5F7472696D75
:104860003A206C6567616C206D656D6F7279000030
:104870006D656D5F7472696D2063616E206F6E6C23
:104880007920736872696E6B206D656D6F72790047
:104890006D656D5F6D616C6C6F633A20216C667243
:1048A00065652D3E75736564000000004AB1000027
:1048B00011F8013B521E00F8013B1CBF11F8013BEF
:1048C000F8E77047002201F0FFBBF0B40246106821
:1048D00095681318506803EB5004C0071DD54D446C
:1048E0001BE013F8017B05F8017B491EF9D1A0B14B
:1048F000B60813F8011B06F00306032E08BF13F8D1
:10490000016B01EB06214942801C294405D011F8B6
:10491000016B05F8016B401EF9D1A3420ED013F8CC
:10492000016B16F0030104BF13F8011BC91C300909
:104930000F28DAD113F8010B0F30D6E7F0BC02F1E3
:104940000C00704770B50246DFF860031468006819
:10495000A0B190F8373003F005010529F7D141687F
:104960000029F4D0856805EA040629408E4204D067
:104970009907ECD4C3689C42E9D170BDDFF83003DD
:10498000006840B190F8371001F00501052902D107
:1049900041680029F1D100F081F9002070BD2DE9B6
:1049A000F84FDFF8107381463888401C38808B46FA
:1049B000D9F8045028780109042905D000F0E0F85E
:1049C000788A401C78827DE0800000F03C000090F6
:1049D0006888FDF709FCB9F808108842044603D23C
:1049E00021464846FCF7F0FFB9F80A0000998842D2
:1049F00005DBB9F80800A04201D3142905DA00F05C
:104A0000BFF83889401C38815CE02869AA4E706183
:104A1000E8683061307D00F0F000E0281CD19BF8A0
:104A20003700C1073CD5DBF80400002838D05C46CD
:104A3000002C39D1687A112801BFA91C00980A5AA4
:104A4000B2F5884F30D15C46002C3FD1B888401C6D
:104A5000B88000F095F844E04FF001085C46DFF8BC
:104A60004CA294F83700C1070AD5606840B172695A
:104A70008242DDD021461046FCF7ACFD0028D7D19C
:104A8000B8F1000F0ED0307D7F2809D0DAF8004051
:104A90004FF000085C4508BF2468002CE1D1C9E74D
:104AA0000024C7E72468F5E730690028CCD05946D0
:104AB000FCF790FD20B9307C00F0F000E028C3D175
:104AC00000F05EF8B888401CB8800AE0E8884FF62D
:104AD0003F71084209D0484601F0C5FC5FEA000971
:104AE00001D100204AE0D9F804503460C6F804B07F
:104AF000B5602878800000F03C00B08148460099FD
:104B0000494209B2FDF71CF8687A01280DD0062841
:104B100006D011280ED15946484601F0FEFE26E087
:104B200059464846FBF742FB21E05946484602F009
:104B30000BF91CE070692146FCF74CFD78B9307D1B
:104B400000F0F000E0280AD0009801B24846FCF7D7
:104B5000F9FFC9F804500221484602F0A1F900F01B
:104B60000FF8F889401CF881B888401CB8800020F4
:104B700030607060B060B08130617061BDE8F28F0C
:104B80004846FCF7E1BF7FB50A9E0C4622B10029DA
:104B90001ABF09680029341D0999089D01910296E0
:104BA0000095214600F002F804B070BD2DE9FC47E5
:104BB00006468946F089DFF804A1012890461C4684
:104BC00000F008800AF1280340F2333240A1504639
:104BD000FFF736FBB8F1000F394F3CD014213046B7
:104BE000FCF7AEFF28B1B88A401CB8826FF0010014
:104BF00051E070897568142808D20AF1280340F240
:104C000061320AF16C015046FFF71AFB0B980A99C2
:104C10002C7268724522D8F800002A4C28612A704C
:104C200069703089FDF7E0FA68800020E88020880C
:104C3000FDF7DAFAA8802088401CB9F1000F208027
:104C400003D121480168E96002E0D9F80000E8607A
:104C50000021698103E0716808690090E84639889D
:104C60000C98491C3980D8F8002041688A4203D149
:104C7000314602F07DFA0EE0C18D41B13289914298
:104C800005D201464246304601F0E8FC03E04369A4
:104C9000424631469847BDE8F68700000B48B0F819
:104CA0005610491CA0F8561070470000346F0120C0
:104CB000386F012052670120406E01203802010840
:104CC00050670120B46F0120A00A01080867012085
:104CD000702D3E726566203D3D2031002DE9F04F7C
:104CE0000FF2A41CA1B0DCE90089CDE900892A9D5E
:104CF000DFF8DC9B049100248DF843500D944FF0B5
:104D0000FF38824616461F460FE0B3462C461BF876
:104D1000011B0498D0470028049000F0A2800D9851
:104D2000401C641E0D90F2D176193078252808D1E8
:104D3000002100220791089209910A920B910C928E
:104D40000DE06A464146304602F0D9FA050001D12D
:104D50000D98A1E0D9D50125E6E741F0010116F84B
:104D6000010F2028F9D023280CD02B2804D02D287F
:104D700005D0302809D076E041F00201EFE741F09C
:104D80000401ECE741F00801E9E741F01001E6E732
:104D90000F9209E00F98484505DA00EB800402EB1A
:104DA0004402303A0F92761C3278A2F130000A2881
:104DB000F0D330782E2818BFCDF8388022D116F8DD
:104DC000010F2A2807D138683860761C50F8042B68
:104DD00038600E9216E02D280CBF761C00200022B1
:104DE0000E920AE040B90E9A4A4505DA02EB8204B7
:104DF00003EB4403303B0E93761C3378A3F130026F
:104E00000A2AEFD3ADF8401021A0317802F088FAD9
:104E100008B116F8010B8DF842009DF84200682891
:104E200004D1307868280AD1622105E06C2804BFDB
:104E300030786C2803D171218DF84210761C12A8AD
:104E400006903A4616F8013B02A9504600F064F875
:104E500038B912AA02A9504600F0C8F900287FF517
:104E600064AF404618E02A2892D13A683A6052F876
:104E7000040B3A6000280F9003D540420F9041F098
:104E80000401761C95E7000000000000000000000F
:104E9000686A6C747A4C000021B0BDE8F08F62281B
:104EA00020D0682811D06A2803D06C2827D0712818
:104EB00025D10868C01D20F007000860D0E9002354
:104EC00008300860194610467047002A0A680A60D0
:104ED000106803D0121D0A6000B217E0121D0A60AC
:104EE00080B217E0002A0A680A60106803D0121D19
:104EF0000A6040B20AE0121D0A60C0B20AE0002A4D
:104F00000A680A60106803D0121D0A60C117704752
:104F1000121D0A60002170477CB50D4611461C46E3
:104F20002E69B4F1250200F04F811C3A00F0848014
:104F3000121F022A40F280800E3A00F00981521FAF
:104F400059D0093A78D0921E16D0521E35D0521E32
:104F5000022A71D9121F30D0521F00F09880521EC1
:104F600049D0521E00F0E280D21E00F0FF80921E57
:104F700041D0D21E3FD02DE195F83A406C2C09D09B
:104F80006869421C6A610A680A6052F8043B0A6058
:104F9000335429E10A680A6052F8043B0A6000931E
:104FA000002201924FF0FF332B636A46294600F03E
:104FB00098F9002840F1188103E195F83A000122A0
:104FC000FFF76DFFC5E90001002904D56869411CA0
:104FD00069612D220DE0288F810704D56869411C85
:104FE00069612B2205E0C00721D56869411C696110
:104FF000202232541BE095F83A000022FFF74FFFC1
:10500000C5E9000195F83800010710D5D5E900235E
:10501000002B08BF002A0AD044F02000782806D1CF
:10502000686930213154401C421C6A613454214665
:1050300068693044E86087E00868C01D20F0070018
:105040000860D0E9002308300860C5E90023D5E9ED
:105050000001C80F04D06869411C69612D220DE070
:10506000288F810704D56869411C69612B2205E0FE
:10507000C00704D56869411C6961202232546869FF
:105080003044E8602146284600F036FAACE005F1ED
:105090003A02507820B14FF0FF340FF6043074E03C
:1050A0001078622808D0682824D06A2812D06C288A
:1050B0002ED071280ED02BE00A680A6052F8040B3B
:1050C0000A6020B94FF0FF340FF6EC205DE0E96A8A
:1050D000017089E00A680A6052F8040B0A6020B97E
:1050E0004FF0FF340FF6D0204FE0EA6AD317C0E943
:1050F000002379E00A680A6052F8040B0A6020B9BC
:105100004FF0FF340FF6B0203FE0E96A01806BE01A
:105110000A680A6052F8040B0A6020B94FF0FF34A5
:105120000FF6942031E0E96A01605DE00A680A60E8
:1051300052F8040B0A60002120F0000221F0FF3336
:10514000C5E90023EE607821284600F02DF94BE0F8
:105150006C2285F83A200B680B6053F8042B0B6027
:1051600052BB4FF0FF340FF684200EE095F83A2042
:105170006C2AF0D00868086050F8044B0860EC60B6
:105180003CB94FF0FF340FF6482002F0D5F8201A52
:1051900076BD2E6B002E04D5204602F0EDF80446B5
:1051A00008E032460021204602F0F0F8002814BF43
:1051B000041B3446AC6117E0294600F092F8002841
:1051C00012D54FF0FF3076BD6869411C6961252218
:1051D000325409E06969481C686125227254210033
:1051E00002D0431C6B613454002076BD2DE9F041A0
:1051F0000E4605469046726B7069316AB46A121A9F
:10520000B069521A716A121AF069521A121A96F893
:105210003800141B41070DD4002C0BDD2746B06865
:105220002021A8470028B06057D0F06A401C7F1E9C
:10523000F062F4D1736942463146284600F098FC8A
:1052400000284AD1376A002F0ADDB0683021A8470C
:105250000028B06041D0F06A401C7F1EF062F4D19B
:10526000B369F2683146284600F082FCA8BB776A31
:10527000002F09DDB0683021A847B06068B3F06A3C
:10528000401C7F1EF062F5D1F068B169F3694218E5
:105290003146284600F06CFCF8B9B76A002F09DDEA
:1052A000B0683021A847B060B8B1F06A401C7F1EDA
:1052B000F062F5D196F8380041070BD5002C09DDD6
:1052C000B0682021A847B06038B1F06A401C641E65
:1052D000F062F5D10020BDE8F0814FF0FF30BDE86D
:1052E000F0812DE9F8470D46A3B02F6B002F06463D
:1052F000904648BF6FF000470FF60C1402F072F8AA
:10530000D4E90023696B4018CDE90123812828BF27
:105310004FF0FF3042D20024002F33DDD8F80010C8
:1053200001AA684601F0F3FF8146B9F1000F38D4B5
:10533000D8F8000010B9B9F1010932D44F4521DB8A
:105340006869484481280AD30021696303AA294671
:105350003046FFF74BFF040014D40020686103AB14
:10536000D5F814A04A46694603EB0A00FFF79EFAF7
:10537000CA44C5F814A058F8040B002818BFA7EBBE
:105380000907C9D14CB903AA29463046FFF72EFFB9
:10539000044614B9002068616863204624B0BDE863
:1053A000F0874FF0FF34F8E72DE9FC4307466F29FB
:1053B0003E6908BF082405D041F02000782814BFBA
:1053C0000A2410243C25D7E90023642918BF692941
:1053D0009046994605D1002B03D5D8F1000869EB1A
:1053E0004909B9F1000F08BFB8F1000F1FD1386BA0
:1053F000E8B9082C4CD197F83800010748D530207F
:105400003B2586F83B0043E000280ED597F838008E
:1054100000F01400102808D17B6B7969386A5B1A98
:105420001B1A9A1A002AC8BF3A62BDE8F3838DF8A6
:105430000010404649462246E31701F0D9FF3032BA
:10544000D0B26D1E3A28019504DB9DF80000A0F152
:1054500051018A187255404649462246E31701F029
:10546000C7FF80465FEA010908BFB8F1000F03D00B
:10547000F86871198842DCD3082C09D197F83800F4
:10548000010705D5705D302802D06D1E30207055A3
:10549000C5F13C02BA617119F960386B8242B3DA26
:1054A000821A3A624FF6EF70398F01403987BDE8B2
:1054B000F3832DE9D04306460F4614464FF000080B
:1054C000DFF8109412E0E00707D542464B4630461D
:1054D000394602F011F806460F4640464946424614
:1054E0004B4602F009F8641080468946002CEAD148
:1054F00030463946BDE8D0832DE9F84F05468A4647
:105500004AF020048EB0D5E90089612C02AE09D0A2
:10551000286B002848BF062003D408BF672C01D1A0
:1055200001202863D5E900014A005215521C0DD113
:105530000B030BD0AAF1610103201A29A86102D242
:105540000FF2CC6110E00FF2CC610DE04A00521571
:10555000521C0ED10B030CD1AAF1610103201A29B0
:10556000A86116D30FF2B461E8680322FFF79EF931
:10557000C0E1CDE90C01DDE90C2323F00043B3F5D4
:10558000801F0DD20027002B08BF002A019703D1EE
:1055900011E00FF28461E7E701AA02F07FF80AE068
:1055A000CD48CE4900EB1350DDE90C2301900B40B0
:1055B000CB4910461943C5E90001612C0DD1E868BB
:1055C00030210170821CBAF1610FEA600CBF7821B2
:1055D000582141706869801C6861D5E90001CDE9F6
:1055E0000C01DDE90C2333F0004104BF0028002347
:1055F00000F04881612C40F0A080286B49460028CB
:105600004CBF4FF0210B00F1010B4046002200235C
:10561000DDE90C8902F07AF801990BF1010738BF36
:1056200089F00049091F002F01918DF808200DF124
:10563000090040F33581A949009106464046494694
:105640000022002302F07AF880F029814800400D02
:1056500000F11C0211D0002A0FDD40F2FF739A42C4
:1056600005DBA04909F000400143002011E0009B48
:10567000194041EA025140460BE028F0000039F0A1
:10568000004108BF00280FBF49461C22494602F0CE
:105690006DF88046894602F007F9FF1F002F044687
:1056A00009DD02F01FF902460B464046494602F06A
:1056B0002BF980468946F01D072104E004F00F0213
:1056C00000F8012D2411002C01DD491EF6D5491EDC
:1056D0005CBF002200F8012DF9D5DCE0002019465E
:1056E00002AA0A4400E05B1E12F80149491E8442E6
:1056F000F9D00F2804D10DF10900425C521C42542C
:10570000002904D50198001D02AE5B1C0190581EB3
:105710000CD43118AAF13A040A783032D7B23A2FB1
:10572000A8BFA218401E01F80129F5D5286B002852
:1057300040F1A780591E2963A3E001996A4A47F204
:105740009750414391FBF2F2019229F00046D2F1C9
:10575000070204DD40463146FFF7ABFE0AE0524245
:1057600000206249FFF7A5FE02460B46404631463F
:1057700002F03CF98046662C286B06BF019F0A3771
:1057800006273F18142FC8BF142730208DF80800B3
:1057900089460DF1090000E03046002F34DD064651
:1057A0004046494602F046FA01460A4606F1080319
:1057B00004200A26B2FBF6F606EB860EA2EB4E029A
:1057C000303203F8012C0A22B6FBF2F202EB820E11
:1057D000A6EB4E063036401E03F8026DE9D1083FB5
:1057E000002F03F10806D7DD084602F037FA02461B
:1057F0000B464046494602F087F800223C4B01F038
:105800007BFE80468946CBE70DF10901401A0DF178
:10581000090604E00199491E401E0191761C317869
:105820003029F7D0662C02D10199491C03E0652C80
:105830000CBF012100212B6BCB189842B8BF431E2F
:10584000002B1ED4834204DAF05C3528A8BF39202F
:1058500000DA30201946721E02EB010800E05B1EE0
:1058600018F80199491E8145F9D0392802D1705C98
:10587000401C7054002904D50198401C16465B1C3E
:105880000190019800B200901BB232465146284662
:1058900000F034F82EE0C61D002F3FF7CFAE3046A3
:1058A0000DF10901401A03465845C8BF5B46002B5D
:1058B0000DF109063FF53AAF8342BFF60FAF0DF188
:1058C0000900C15C07297FF709AF0F2007E7000037
:1058D000CBCCCC0C0000244002FCFFFFFFFF0F806C
:1058E0000000E03F0000F07FA08601000000F03FD4
:1058F00084D797410FB0BDE8F08F00002DE9F8473D
:1059000083B006468A461746984601F002FDB8F174
:10591000000F406A356B90F8009002DC4FF00108F0
:10592000BFA74AF02000BDF93040662808BF641CBC
:1059300015D0672840F0848014F1040FC0F28680EF
:10594000AC4280F2838096F83800641C010702D4D0
:10595000A845B8BF454620B22D1A48BF00250FFA0A
:1059600084FAF068B169BAF1000F25DC4A1C3023D3
:105970004354002D03DC96F83800010703D5F06886
:1059800000F80290521C15EB0A0FB8BF6C4220B20F
:10599000441941424445B8BFA046B26171620FFA52
:1059A00088F5F561F068B3692A4639461844FEF770
:1059B0007DFF641BB462C4E022B29045084417DA4C
:1059C00042463946FEF772FFB0694044B061AAEB27
:1059D0000801002D716203DC96F838100A0705D51E
:1059E000F16801F80090F069401CF061B562A8E030
:1059F0003946FEF75BFFB069002D5044A8EB040860
:105A000003DC96F838100A0703D5F16801F8009016
:105A1000401CB0610FFA88F08542F368B069B8BFE6
:105A2000A8460FFA88F207EB0A011844FEF73EFF7A
:105A3000B1690FFA88F00144B161281A706280E000
:105A4000BAF1610F14D14FF0700A16E0A84504DADC
:105A500096F838100A0758BF45466D1E48BF002506
:105A6000BAF1670F14BF4FF0450A4FF0650A04E022
:105A7000BAF1410F08BF4FF0500AB169F368481CF2
:105A8000B061002D17F8012B5A5403DC96F838103A
:105A90000A071BD5F168431CB36101F80090002D83
:105AA00014DDA8F101080FFA88F039468542F7683D
:105AB000B8BFA8460FFA88F2F818FEF7F7FEB069EB
:105AC0000FFA88F108446D1AB0617562F068B16927
:105AD0000844002C80F800A003D42B224270811CC3
